{
  "abi": [
    {
      "inputs": [
        {
          "internalType": "address",
          "name": "_oracle",
          "type": "address"
        },
        {
          "internalType": "string",
          "name": "_jobId",
          "type": "string"
        },
        {
          "internalType": "uint256",
          "name": "_fee",
          "type": "uint256"
        },
        {
          "internalType": "address",
          "name": "_link",
          "type": "address"
        }
      ],
      "stateMutability": "nonpayable",
      "type": "constructor"
    },
    {
      "anonymous": false,
      "inputs": [
        {
          "indexed": true,
          "internalType": "bytes32",
          "name": "id",
          "type": "bytes32"
        }
      ],
      "name": "ChainlinkCancelled",
      "type": "event"
    },
    {
      "anonymous": false,
      "inputs": [
        {
          "indexed": true,
          "internalType": "bytes32",
          "name": "id",
          "type": "bytes32"
        }
      ],
      "name": "ChainlinkFulfilled",
      "type": "event"
    },
    {
      "anonymous": false,
      "inputs": [
        {
          "indexed": true,
          "internalType": "bytes32",
          "name": "id",
          "type": "bytes32"
        }
      ],
      "name": "ChainlinkRequested",
      "type": "event"
    },
    {
      "inputs": [
        {
          "internalType": "bytes32",
          "name": "_requestId",
          "type": "bytes32"
        },
        {
          "internalType": "uint256",
          "name": "_users",
          "type": "uint256"
        }
      ],
      "name": "fulfill",
      "outputs": [],
      "stateMutability": "nonpayable",
      "type": "function"
    },
    {
      "inputs": [],
      "name": "requestUsers",
      "outputs": [
        {
          "internalType": "bytes32",
          "name": "requestId",
          "type": "bytes32"
        }
      ],
      "stateMutability": "nonpayable",
      "type": "function"
    },
    {
      "inputs": [
        {
          "internalType": "string",
          "name": "source",
          "type": "string"
        }
      ],
      "name": "stringToBytes32",
      "outputs": [
        {
          "internalType": "bytes32",
          "name": "result",
          "type": "bytes32"
        }
      ],
      "stateMutability": "pure",
      "type": "function"
    },
    {
      "inputs": [],
      "name": "users",
      "outputs": [
        {
          "internalType": "uint256",
          "name": "",
          "type": "uint256"
        }
      ],
      "stateMutability": "view",
      "type": "function"
    }
  ],
  "bytecode": "608060405260016004553480156200001657600080fd5b5060405162000d8838038062000d88833981810160405260808110156200003c57600080fd5b8151602083018051604051929492938301929190846401000000008211156200006457600080fd5b9083019060208201858111156200007a57600080fd5b82516401000000008111828201881017156200009557600080fd5b82525081516020918201929091019080838360005b83811015620000c4578181015183820152602001620000aa565b50505050905090810190601f168015620000f25780820380516001836020036101000a031916815260200191505b506040908152602082015191015190925090506001600160a01b03811662000124576200011e62000165565b6200012f565b6200012f81620001ed565b600780546001600160a01b0319166001600160a01b03861617905562000155836200020f565b6008555060095550620002339050565b620001eb73c89bd4e1632d3a43cb03aaad5262cbe4038bc5716001600160a01b03166338cc48316040518163ffffffff1660e01b815260040160206040518083038186803b158015620001b757600080fd5b505afa158015620001cc573d6000803e3d6000fd5b505050506040513d6020811015620001e357600080fd5b5051620001ed565b565b600280546001600160a01b0319166001600160a01b0392909216919091179055565b80516000908290620002265750600090506200022e565b505060208101515b919050565b610b4580620002436000396000f3fe608060405234801561001057600080fd5b506004361061004c5760003560e01c80634357855e14610051578063cfb5192814610076578063d0409a981461012e578063f202027514610136575b600080fd5b6100746004803603604081101561006757600080fd5b508035906020013561013e565b005b61011c6004803603602081101561008c57600080fd5b8101906020810181356401000000008111156100a757600080fd5b8201836020820111156100b957600080fd5b803590602001918460018302840111640100000000831117156100db57600080fd5b91908080601f0160208091040260200160405190810160405280939291908181526020018383808284376000920191909152509295506101df945050505050565b60408051918252519081900360200190f35b61011c610201565b61011c6103ea565b60008281526005602052604090205482906001600160a01b031633146101955760405162461bcd60e51b8152600401808060200182810382526028815260200180610ae86028913960400191505060405180910390fd5b60008181526005602052604080822080546001600160a01b03191690555182917f7cc135e0cebb02c3480ae5d74d377283180a2601f8f644edf7987b009316c63a91a25060065550565b805160009082906101f45750600090506101fc565b505060208101515b919050565b600061020b610a75565b60085461022090306321abc2af60e11b6103f0565b9050610271604051806040016040528060038152602001621b185d60ea1b8152506040518060400160405280600781526020016634352e3739303560c81b815250836104159092919063ffffffff16565b6102c0604051806040016040528060038152602001626c6e6760e81b815250604051806040016040528060078152602001661898971c99181960c91b815250836104159092919063ffffffff16565b6103116040518060400160405280600681526020016572616469757360d01b8152506040518060400160405280600681526020016503530303030360d41b815250836104159092919063ffffffff16565b61036e604051806040016040528060058152602001641cdd185c9d60da1b815250604051806040016040528060138152602001720323032312d30312d30312032303a30303a303606c1b815250836104159092919063ffffffff16565b6103c960405180604001604052806003815260200162195b9960ea1b815250604051806040016040528060138152602001720323032312d30322d32312032303a33303a303606c1b815250836104159092919063ffffffff16565b6007546009546103e4916001600160a01b0316908390610438565b91505090565b60065481565b6103f8610a75565b610400610a75565b61040c81868686610606565b95945050505050565b60808301516104249083610643565b60808301516104339082610643565b505050565b6004546040805130606090811b60208084019190915260348084018690528451808503909101815260549093018452825192810192909220908601939093526000838152600590915281812080546001600160a01b0319166001600160a01b038816179055905182917fb5e6e01e79f91267dc17b4e6314d5d4d03593d2ceee0fbb452b750bd70ea5af991a26002546001600160a01b0316634000aea085846104e08761065a565b6040518463ffffffff1660e01b815260040180846001600160a01b0316815260200183815260200180602001828103825283818151815260200191508051906020019080838360005b83811015610541578181015183820152602001610529565b50505050905090810190601f16801561056e5780820380516001836020036101000a031916815260200191505b50945050505050602060405180830381600087803b15801561058f57600080fd5b505af11580156105a3573d6000803e3d6000fd5b505050506040513d60208110156105b957600080fd5b50516105f65760405162461bcd60e51b8152600401808060200182810382526023815260200180610ac56023913960400191505060405180910390fd5b6004805460010190559392505050565b61060e610a75565b61061e856080015161010061077e565b50509183526001600160a01b031660208301526001600160e01b031916604082015290565b61065082600383516107be565b6104338282610898565b6060634042994660e01b6000808460000151856020015186604001518760600151600189608001516000015160405160240180896001600160a01b03168152602001888152602001878152602001866001600160a01b03168152602001856001600160e01b031916815260200184815260200183815260200180602001828103825283818151815260200191508051906020019080838360005b8381101561070c5781810151838201526020016106f4565b50505050905090810190601f1680156107395780820380516001836020036101000a031916815260200191505b5060408051601f198184030181529190526020810180516001600160e01b03166001600160e01b0319909d169c909c17909b5250989950505050505050505050919050565b610786610aaa565b602082061561079b5760208206602003820191505b506020808301829052604080518085526000815283019091019052815b92915050565b601781116107df576107d98360e0600585901b1683176108b9565b50610433565b60ff8111610809576107fc836018611fe0600586901b16176108b9565b506107d9838260016108d1565b61ffff811161083457610827836019611fe0600586901b16176108b9565b506107d9838260026108d1565b63ffffffff81116108615761085483601a611fe0600586901b16176108b9565b506107d9838260046108d1565b67ffffffffffffffff81116104335761088583601b611fe0600586901b16176108b9565b50610892838260086108d1565b50505050565b6108a0610aaa565b6108b2838460000151518485516108f2565b9392505050565b6108c1610aaa565b6108b2838460000151518461099e565b6108d9610aaa565b6108ea8485600001515185856109e9565b949350505050565b6108fa610aaa565b825182111561090857600080fd5b84602001518285011115610932576109328561092a8760200151878601610a47565b600202610a5e565b6000808651805187602083010193508088870111156109515787860182525b505050602084015b602084106109785780518252601f199093019260209182019101610959565b51815160001960208690036101000a019081169019919091161790525083949350505050565b6109a6610aaa565b836020015183106109c2576109c2848560200151600202610a5e565b8351805160208583010184815350808514156109df576001810182525b5093949350505050565b6109f1610aaa565b84602001518483011115610a0e57610a0e85858401600202610a5e565b60006001836101000a039050855183868201018583198251161781525080518487011115610a3c5783860181525b509495945050505050565b600081831115610a585750816107b8565b50919050565b8151610a6a838361077e565b506108928382610898565b6040805160a081018252600080825260208201819052918101829052606081019190915260808101610aa5610aaa565b905290565b60405180604001604052806060815260200160008152509056fe756e61626c6520746f207472616e73666572416e6443616c6c20746f206f7261636c65536f75726365206d75737420626520746865206f7261636c65206f66207468652072657175657374a2646970667358221220128a7f3b2de85bc3c66ce854ff6e6c5418051b75581cab9928864dc84aeebb6564736f6c634300060c0033",
  "bytecodeSha1": "fbdff2ef9a6734b2a9ca485c1930df8e1993b417",
  "compiler": {
    "evm_version": "istanbul",
    "optimizer": {
      "enabled": true,
      "runs": 200
    },
    "version": "0.6.12+commit.27d51765"
  },
  "contractName": "GeoDB",
  "language": "Solidity",
  "natspec": {
    "kind": "dev",
    "methods": {
      "fulfill(bytes32,uint256)": {
        "notice": "Receive the response in the form of uint256"
      },
      "requestUsers()": {
        "notice": "Create a Chainlink request to retrieve API response, find the target data, then multiply by 1000000000000000000 (to remove decimal places from data)."
      }
    },
    "version": 1
  },
  "opcodes": "PUSH1 0x80 PUSH1 0x40 MSTORE CALLVALUE DUP1 ISZERO PUSH2 0x10 JUMPI PUSH1 0x0 DUP1 REVERT JUMPDEST POP PUSH1 0x4 CALLDATASIZE LT PUSH2 0x4C JUMPI PUSH1 0x0 CALLDATALOAD PUSH1 0xE0 SHR DUP1 PUSH4 0x4357855E EQ PUSH2 0x51 JUMPI DUP1 PUSH4 0xCFB51928 EQ PUSH2 0x76 JUMPI DUP1 PUSH4 0xD0409A98 EQ PUSH2 0x12E JUMPI DUP1 PUSH4 0xF2020275 EQ PUSH2 0x136 JUMPI JUMPDEST PUSH1 0x0 DUP1 REVERT JUMPDEST PUSH2 0x74 PUSH1 0x4 DUP1 CALLDATASIZE SUB PUSH1 0x40 DUP2 LT ISZERO PUSH2 0x67 JUMPI PUSH1 0x0 DUP1 REVERT JUMPDEST POP DUP1 CALLDATALOAD SWAP1 PUSH1 0x20 ADD CALLDATALOAD PUSH2 0x13E JUMP JUMPDEST STOP JUMPDEST PUSH2 0x11C PUSH1 0x4 DUP1 CALLDATASIZE SUB PUSH1 0x20 DUP2 LT ISZERO PUSH2 0x8C JUMPI PUSH1 0x0 DUP1 REVERT JUMPDEST DUP2 ADD SWAP1 PUSH1 0x20 DUP2 ADD DUP2 CALLDATALOAD PUSH5 0x100000000 DUP2 GT ISZERO PUSH2 0xA7 JUMPI PUSH1 0x0 DUP1 REVERT JUMPDEST DUP3 ADD DUP4 PUSH1 0x20 DUP3 ADD GT ISZERO PUSH2 0xB9 JUMPI PUSH1 0x0 DUP1 REVERT JUMPDEST DUP1 CALLDATALOAD SWAP1 PUSH1 0x20 ADD SWAP2 DUP5 PUSH1 0x1 DUP4 MUL DUP5 ADD GT PUSH5 0x100000000 DUP4 GT OR ISZERO PUSH2 0xDB JUMPI PUSH1 0x0 DUP1 REVERT JUMPDEST SWAP2 SWAP1 DUP1 DUP1 PUSH1 0x1F ADD PUSH1 0x20 DUP1 SWAP2 DIV MUL PUSH1 0x20 ADD PUSH1 0x40 MLOAD SWAP1 DUP2 ADD PUSH1 0x40 MSTORE DUP1 SWAP4 SWAP3 SWAP2 SWAP1 DUP2 DUP2 MSTORE PUSH1 0x20 ADD DUP4 DUP4 DUP1 DUP3 DUP5 CALLDATACOPY PUSH1 0x0 SWAP3 ADD SWAP2 SWAP1 SWAP2 MSTORE POP SWAP3 SWAP6 POP PUSH2 0x1DF SWAP5 POP POP POP POP POP JUMP JUMPDEST PUSH1 0x40 DUP1 MLOAD SWAP2 DUP3 MSTORE MLOAD SWAP1 DUP2 SWAP1 SUB PUSH1 0x20 ADD SWAP1 RETURN JUMPDEST PUSH2 0x11C PUSH2 0x201 JUMP JUMPDEST PUSH2 0x11C PUSH2 0x3EA JUMP JUMPDEST PUSH1 0x0 DUP3 DUP2 MSTORE PUSH1 0x5 PUSH1 0x20 MSTORE PUSH1 0x40 SWAP1 KECCAK256 SLOAD DUP3 SWAP1 PUSH1 0x1 PUSH1 0x1 PUSH1 0xA0 SHL SUB AND CALLER EQ PUSH2 0x195 JUMPI PUSH1 0x40 MLOAD PUSH3 0x461BCD PUSH1 0xE5 SHL DUP2 MSTORE PUSH1 0x4 ADD DUP1 DUP1 PUSH1 0x20 ADD DUP3 DUP2 SUB DUP3 MSTORE PUSH1 0x28 DUP2 MSTORE PUSH1 0x20 ADD DUP1 PUSH2 0xAE8 PUSH1 0x28 SWAP2 CODECOPY PUSH1 0x40 ADD SWAP2 POP POP PUSH1 0x40 MLOAD DUP1 SWAP2 SUB SWAP1 REVERT JUMPDEST PUSH1 0x0 DUP2 DUP2 MSTORE PUSH1 0x5 PUSH1 0x20 MSTORE PUSH1 0x40 DUP1 DUP3 KECCAK256 DUP1 SLOAD PUSH1 0x1 PUSH1 0x1 PUSH1 0xA0 SHL SUB NOT AND SWAP1 SSTORE MLOAD DUP3 SWAP2 PUSH32 0x7CC135E0CEBB02C3480AE5D74D377283180A2601F8F644EDF7987B009316C63A SWAP2 LOG2 POP PUSH1 0x6 SSTORE POP JUMP JUMPDEST DUP1 MLOAD PUSH1 0x0 SWAP1 DUP3 SWAP1 PUSH2 0x1F4 JUMPI POP PUSH1 0x0 SWAP1 POP PUSH2 0x1FC JUMP JUMPDEST POP POP PUSH1 0x20 DUP2 ADD MLOAD JUMPDEST SWAP2 SWAP1 POP JUMP JUMPDEST PUSH1 0x0 PUSH2 0x20B PUSH2 0xA75 JUMP JUMPDEST PUSH1 0x8 SLOAD PUSH2 0x220 SWAP1 ADDRESS PUSH4 0x21ABC2AF PUSH1 0xE1 SHL PUSH2 0x3F0 JUMP JUMPDEST SWAP1 POP PUSH2 0x271 PUSH1 0x40 MLOAD DUP1 PUSH1 0x40 ADD PUSH1 0x40 MSTORE DUP1 PUSH1 0x3 DUP2 MSTORE PUSH1 0x20 ADD PUSH3 0x1B185D PUSH1 0xEA SHL DUP2 MSTORE POP PUSH1 0x40 MLOAD DUP1 PUSH1 0x40 ADD PUSH1 0x40 MSTORE DUP1 PUSH1 0x7 DUP2 MSTORE PUSH1 0x20 ADD PUSH7 0x34352E37393035 PUSH1 0xC8 SHL DUP2 MSTORE POP DUP4 PUSH2 0x415 SWAP1 SWAP3 SWAP2 SWAP1 PUSH4 0xFFFFFFFF AND JUMP JUMPDEST PUSH2 0x2C0 PUSH1 0x40 MLOAD DUP1 PUSH1 0x40 ADD PUSH1 0x40 MSTORE DUP1 PUSH1 0x3 DUP2 MSTORE PUSH1 0x20 ADD PUSH3 0x6C6E67 PUSH1 0xE8 SHL DUP2 MSTORE POP PUSH1 0x40 MLOAD DUP1 PUSH1 0x40 ADD PUSH1 0x40 MSTORE DUP1 PUSH1 0x7 DUP2 MSTORE PUSH1 0x20 ADD PUSH7 0x1898971C991819 PUSH1 0xC9 SHL DUP2 MSTORE POP DUP4 PUSH2 0x415 SWAP1 SWAP3 SWAP2 SWAP1 PUSH4 0xFFFFFFFF AND JUMP JUMPDEST PUSH2 0x311 PUSH1 0x40 MLOAD DUP1 PUSH1 0x40 ADD PUSH1 0x40 MSTORE DUP1 PUSH1 0x6 DUP2 MSTORE PUSH1 0x20 ADD PUSH6 0x726164697573 PUSH1 0xD0 SHL DUP2 MSTORE POP PUSH1 0x40 MLOAD DUP1 PUSH1 0x40 ADD PUSH1 0x40 MSTORE DUP1 PUSH1 0x6 DUP2 MSTORE PUSH1 0x20 ADD PUSH6 0x35303030303 PUSH1 0xD4 SHL DUP2 MSTORE POP DUP4 PUSH2 0x415 SWAP1 SWAP3 SWAP2 SWAP1 PUSH4 0xFFFFFFFF AND JUMP JUMPDEST PUSH2 0x36E PUSH1 0x40 MLOAD DUP1 PUSH1 0x40 ADD PUSH1 0x40 MSTORE DUP1 PUSH1 0x5 DUP2 MSTORE PUSH1 0x20 ADD PUSH5 0x1CDD185C9D PUSH1 0xDA SHL DUP2 MSTORE POP PUSH1 0x40 MLOAD DUP1 PUSH1 0x40 ADD PUSH1 0x40 MSTORE DUP1 PUSH1 0x13 DUP2 MSTORE PUSH1 0x20 ADD PUSH19 0x323032312D30312D30312032303A30303A303 PUSH1 0x6C SHL DUP2 MSTORE POP DUP4 PUSH2 0x415 SWAP1 SWAP3 SWAP2 SWAP1 PUSH4 0xFFFFFFFF AND JUMP JUMPDEST PUSH2 0x3C9 PUSH1 0x40 MLOAD DUP1 PUSH1 0x40 ADD PUSH1 0x40 MSTORE DUP1 PUSH1 0x3 DUP2 MSTORE PUSH1 0x20 ADD PUSH3 0x195B99 PUSH1 0xEA SHL DUP2 MSTORE POP PUSH1 0x40 MLOAD DUP1 PUSH1 0x40 ADD PUSH1 0x40 MSTORE DUP1 PUSH1 0x13 DUP2 MSTORE PUSH1 0x20 ADD PUSH19 0x323032312D30322D32312032303A33303A303 PUSH1 0x6C SHL DUP2 MSTORE POP DUP4 PUSH2 0x415 SWAP1 SWAP3 SWAP2 SWAP1 PUSH4 0xFFFFFFFF AND JUMP JUMPDEST PUSH1 0x7 SLOAD PUSH1 0x9 SLOAD PUSH2 0x3E4 SWAP2 PUSH1 0x1 PUSH1 0x1 PUSH1 0xA0 SHL SUB AND SWAP1 DUP4 SWAP1 PUSH2 0x438 JUMP JUMPDEST SWAP2 POP POP SWAP1 JUMP JUMPDEST PUSH1 0x6 SLOAD DUP2 JUMP JUMPDEST PUSH2 0x3F8 PUSH2 0xA75 JUMP JUMPDEST PUSH2 0x400 PUSH2 0xA75 JUMP JUMPDEST PUSH2 0x40C DUP2 DUP7 DUP7 DUP7 PUSH2 0x606 JUMP JUMPDEST SWAP6 SWAP5 POP POP POP POP POP JUMP JUMPDEST PUSH1 0x80 DUP4 ADD MLOAD PUSH2 0x424 SWAP1 DUP4 PUSH2 0x643 JUMP JUMPDEST PUSH1 0x80 DUP4 ADD MLOAD PUSH2 0x433 SWAP1 DUP3 PUSH2 0x643 JUMP JUMPDEST POP POP POP JUMP JUMPDEST PUSH1 0x4 SLOAD PUSH1 0x40 DUP1 MLOAD ADDRESS PUSH1 0x60 SWAP1 DUP2 SHL PUSH1 0x20 DUP1 DUP5 ADD SWAP2 SWAP1 SWAP2 MSTORE PUSH1 0x34 DUP1 DUP5 ADD DUP7 SWAP1 MSTORE DUP5 MLOAD DUP1 DUP6 SUB SWAP1 SWAP2 ADD DUP2 MSTORE PUSH1 0x54 SWAP1 SWAP4 ADD DUP5 MSTORE DUP3 MLOAD SWAP3 DUP2 ADD SWAP3 SWAP1 SWAP3 KECCAK256 SWAP1 DUP7 ADD SWAP4 SWAP1 SWAP4 MSTORE PUSH1 0x0 DUP4 DUP2 MSTORE PUSH1 0x5 SWAP1 SWAP2 MSTORE DUP2 DUP2 KECCAK256 DUP1 SLOAD PUSH1 0x1 PUSH1 0x1 PUSH1 0xA0 SHL SUB NOT AND PUSH1 0x1 PUSH1 0x1 PUSH1 0xA0 SHL SUB DUP9 AND OR SWAP1 SSTORE SWAP1 MLOAD DUP3 SWAP2 PUSH32 0xB5E6E01E79F91267DC17B4E6314D5D4D03593D2CEEE0FBB452B750BD70EA5AF9 SWAP2 LOG2 PUSH1 0x2 SLOAD PUSH1 0x1 PUSH1 0x1 PUSH1 0xA0 SHL SUB AND PUSH4 0x4000AEA0 DUP6 DUP5 PUSH2 0x4E0 DUP8 PUSH2 0x65A JUMP JUMPDEST PUSH1 0x40 MLOAD DUP5 PUSH4 0xFFFFFFFF AND PUSH1 0xE0 SHL DUP2 MSTORE PUSH1 0x4 ADD DUP1 DUP5 PUSH1 0x1 PUSH1 0x1 PUSH1 0xA0 SHL SUB AND DUP2 MSTORE PUSH1 0x20 ADD DUP4 DUP2 MSTORE PUSH1 0x20 ADD DUP1 PUSH1 0x20 ADD DUP3 DUP2 SUB DUP3 MSTORE DUP4 DUP2 DUP2 MLOAD DUP2 MSTORE PUSH1 0x20 ADD SWAP2 POP DUP1 MLOAD SWAP1 PUSH1 0x20 ADD SWAP1 DUP1 DUP4 DUP4 PUSH1 0x0 JUMPDEST DUP4 DUP2 LT ISZERO PUSH2 0x541 JUMPI DUP2 DUP2 ADD MLOAD DUP4 DUP3 ADD MSTORE PUSH1 0x20 ADD PUSH2 0x529 JUMP JUMPDEST POP POP POP POP SWAP1 POP SWAP1 DUP2 ADD SWAP1 PUSH1 0x1F AND DUP1 ISZERO PUSH2 0x56E JUMPI DUP1 DUP3 SUB DUP1 MLOAD PUSH1 0x1 DUP4 PUSH1 0x20 SUB PUSH2 0x100 EXP SUB NOT AND DUP2 MSTORE PUSH1 0x20 ADD SWAP2 POP JUMPDEST POP SWAP5 POP POP POP POP POP PUSH1 0x20 PUSH1 0x40 MLOAD DUP1 DUP4 SUB DUP2 PUSH1 0x0 DUP8 DUP1 EXTCODESIZE ISZERO DUP1 ISZERO PUSH2 0x58F JUMPI PUSH1 0x0 DUP1 REVERT JUMPDEST POP GAS CALL ISZERO DUP1 ISZERO PUSH2 0x5A3 JUMPI RETURNDATASIZE PUSH1 0x0 DUP1 RETURNDATACOPY RETURNDATASIZE PUSH1 0x0 REVERT JUMPDEST POP POP POP POP PUSH1 0x40 MLOAD RETURNDATASIZE PUSH1 0x20 DUP2 LT ISZERO PUSH2 0x5B9 JUMPI PUSH1 0x0 DUP1 REVERT JUMPDEST POP MLOAD PUSH2 0x5F6 JUMPI PUSH1 0x40 MLOAD PUSH3 0x461BCD PUSH1 0xE5 SHL DUP2 MSTORE PUSH1 0x4 ADD DUP1 DUP1 PUSH1 0x20 ADD DUP3 DUP2 SUB DUP3 MSTORE PUSH1 0x23 DUP2 MSTORE PUSH1 0x20 ADD DUP1 PUSH2 0xAC5 PUSH1 0x23 SWAP2 CODECOPY PUSH1 0x40 ADD SWAP2 POP POP PUSH1 0x40 MLOAD DUP1 SWAP2 SUB SWAP1 REVERT JUMPDEST PUSH1 0x4 DUP1 SLOAD PUSH1 0x1 ADD SWAP1 SSTORE SWAP4 SWAP3 POP POP POP JUMP JUMPDEST PUSH2 0x60E PUSH2 0xA75 JUMP JUMPDEST PUSH2 0x61E DUP6 PUSH1 0x80 ADD MLOAD PUSH2 0x100 PUSH2 0x77E JUMP JUMPDEST POP POP SWAP2 DUP4 MSTORE PUSH1 0x1 PUSH1 0x1 PUSH1 0xA0 SHL SUB AND PUSH1 0x20 DUP4 ADD MSTORE PUSH1 0x1 PUSH1 0x1 PUSH1 0xE0 SHL SUB NOT AND PUSH1 0x40 DUP3 ADD MSTORE SWAP1 JUMP JUMPDEST PUSH2 0x650 DUP3 PUSH1 0x3 DUP4 MLOAD PUSH2 0x7BE JUMP JUMPDEST PUSH2 0x433 DUP3 DUP3 PUSH2 0x898 JUMP JUMPDEST PUSH1 0x60 PUSH4 0x40429946 PUSH1 0xE0 SHL PUSH1 0x0 DUP1 DUP5 PUSH1 0x0 ADD MLOAD DUP6 PUSH1 0x20 ADD MLOAD DUP7 PUSH1 0x40 ADD MLOAD DUP8 PUSH1 0x60 ADD MLOAD PUSH1 0x1 DUP10 PUSH1 0x80 ADD MLOAD PUSH1 0x0 ADD MLOAD PUSH1 0x40 MLOAD PUSH1 0x24 ADD DUP1 DUP10 PUSH1 0x1 PUSH1 0x1 PUSH1 0xA0 SHL SUB AND DUP2 MSTORE PUSH1 0x20 ADD DUP9 DUP2 MSTORE PUSH1 0x20 ADD DUP8 DUP2 MSTORE PUSH1 0x20 ADD DUP7 PUSH1 0x1 PUSH1 0x1 PUSH1 0xA0 SHL SUB AND DUP2 MSTORE PUSH1 0x20 ADD DUP6 PUSH1 0x1 PUSH1 0x1 PUSH1 0xE0 SHL SUB NOT AND DUP2 MSTORE PUSH1 0x20 ADD DUP5 DUP2 MSTORE PUSH1 0x20 ADD DUP4 DUP2 MSTORE PUSH1 0x20 ADD DUP1 PUSH1 0x20 ADD DUP3 DUP2 SUB DUP3 MSTORE DUP4 DUP2 DUP2 MLOAD DUP2 MSTORE PUSH1 0x20 ADD SWAP2 POP DUP1 MLOAD SWAP1 PUSH1 0x20 ADD SWAP1 DUP1 DUP4 DUP4 PUSH1 0x0 JUMPDEST DUP4 DUP2 LT ISZERO PUSH2 0x70C JUMPI DUP2 DUP2 ADD MLOAD DUP4 DUP3 ADD MSTORE PUSH1 0x20 ADD PUSH2 0x6F4 JUMP JUMPDEST POP POP POP POP SWAP1 POP SWAP1 DUP2 ADD SWAP1 PUSH1 0x1F AND DUP1 ISZERO PUSH2 0x739 JUMPI DUP1 DUP3 SUB DUP1 MLOAD PUSH1 0x1 DUP4 PUSH1 0x20 SUB PUSH2 0x100 EXP SUB NOT AND DUP2 MSTORE PUSH1 0x20 ADD SWAP2 POP JUMPDEST POP PUSH1 0x40 DUP1 MLOAD PUSH1 0x1F NOT DUP2 DUP5 SUB ADD DUP2 MSTORE SWAP2 SWAP1 MSTORE PUSH1 0x20 DUP2 ADD DUP1 MLOAD PUSH1 0x1 PUSH1 0x1 PUSH1 0xE0 SHL SUB AND PUSH1 0x1 PUSH1 0x1 PUSH1 0xE0 SHL SUB NOT SWAP1 SWAP14 AND SWAP13 SWAP1 SWAP13 OR SWAP1 SWAP12 MSTORE POP SWAP9 SWAP10 POP POP POP POP POP POP POP POP POP POP SWAP2 SWAP1 POP JUMP JUMPDEST PUSH2 0x786 PUSH2 0xAAA JUMP JUMPDEST PUSH1 0x20 DUP3 MOD ISZERO PUSH2 0x79B JUMPI PUSH1 0x20 DUP3 MOD PUSH1 0x20 SUB DUP3 ADD SWAP2 POP JUMPDEST POP PUSH1 0x20 DUP1 DUP4 ADD DUP3 SWAP1 MSTORE PUSH1 0x40 DUP1 MLOAD DUP1 DUP6 MSTORE PUSH1 0x0 DUP2 MSTORE DUP4 ADD SWAP1 SWAP2 ADD SWAP1 MSTORE DUP2 JUMPDEST SWAP3 SWAP2 POP POP JUMP JUMPDEST PUSH1 0x17 DUP2 GT PUSH2 0x7DF JUMPI PUSH2 0x7D9 DUP4 PUSH1 0xE0 PUSH1 0x5 DUP6 SWAP1 SHL AND DUP4 OR PUSH2 0x8B9 JUMP JUMPDEST POP PUSH2 0x433 JUMP JUMPDEST PUSH1 0xFF DUP2 GT PUSH2 0x809 JUMPI PUSH2 0x7FC DUP4 PUSH1 0x18 PUSH2 0x1FE0 PUSH1 0x5 DUP7 SWAP1 SHL AND OR PUSH2 0x8B9 JUMP JUMPDEST POP PUSH2 0x7D9 DUP4 DUP3 PUSH1 0x1 PUSH2 0x8D1 JUMP JUMPDEST PUSH2 0xFFFF DUP2 GT PUSH2 0x834 JUMPI PUSH2 0x827 DUP4 PUSH1 0x19 PUSH2 0x1FE0 PUSH1 0x5 DUP7 SWAP1 SHL AND OR PUSH2 0x8B9 JUMP JUMPDEST POP PUSH2 0x7D9 DUP4 DUP3 PUSH1 0x2 PUSH2 0x8D1 JUMP JUMPDEST PUSH4 0xFFFFFFFF DUP2 GT PUSH2 0x861 JUMPI PUSH2 0x854 DUP4 PUSH1 0x1A PUSH2 0x1FE0 PUSH1 0x5 DUP7 SWAP1 SHL AND OR PUSH2 0x8B9 JUMP JUMPDEST POP PUSH2 0x7D9 DUP4 DUP3 PUSH1 0x4 PUSH2 0x8D1 JUMP JUMPDEST PUSH8 0xFFFFFFFFFFFFFFFF DUP2 GT PUSH2 0x433 JUMPI PUSH2 0x885 DUP4 PUSH1 0x1B PUSH2 0x1FE0 PUSH1 0x5 DUP7 SWAP1 SHL AND OR PUSH2 0x8B9 JUMP JUMPDEST POP PUSH2 0x892 DUP4 DUP3 PUSH1 0x8 PUSH2 0x8D1 JUMP JUMPDEST POP POP POP POP JUMP JUMPDEST PUSH2 0x8A0 PUSH2 0xAAA JUMP JUMPDEST PUSH2 0x8B2 DUP4 DUP5 PUSH1 0x0 ADD MLOAD MLOAD DUP5 DUP6 MLOAD PUSH2 0x8F2 JUMP JUMPDEST SWAP4 SWAP3 POP POP POP JUMP JUMPDEST PUSH2 0x8C1 PUSH2 0xAAA JUMP JUMPDEST PUSH2 0x8B2 DUP4 DUP5 PUSH1 0x0 ADD MLOAD MLOAD DUP5 PUSH2 0x99E JUMP JUMPDEST PUSH2 0x8D9 PUSH2 0xAAA JUMP JUMPDEST PUSH2 0x8EA DUP5 DUP6 PUSH1 0x0 ADD MLOAD MLOAD DUP6 DUP6 PUSH2 0x9E9 JUMP JUMPDEST SWAP5 SWAP4 POP POP POP POP JUMP JUMPDEST PUSH2 0x8FA PUSH2 0xAAA JUMP JUMPDEST DUP3 MLOAD DUP3 GT ISZERO PUSH2 0x908 JUMPI PUSH1 0x0 DUP1 REVERT JUMPDEST DUP5 PUSH1 0x20 ADD MLOAD DUP3 DUP6 ADD GT ISZERO PUSH2 0x932 JUMPI PUSH2 0x932 DUP6 PUSH2 0x92A DUP8 PUSH1 0x20 ADD MLOAD DUP8 DUP7 ADD PUSH2 0xA47 JUMP JUMPDEST PUSH1 0x2 MUL PUSH2 0xA5E JUMP JUMPDEST PUSH1 0x0 DUP1 DUP7 MLOAD DUP1 MLOAD DUP8 PUSH1 0x20 DUP4 ADD ADD SWAP4 POP DUP1 DUP9 DUP8 ADD GT ISZERO PUSH2 0x951 JUMPI DUP8 DUP7 ADD DUP3 MSTORE JUMPDEST POP POP POP PUSH1 0x20 DUP5 ADD JUMPDEST PUSH1 0x20 DUP5 LT PUSH2 0x978 JUMPI DUP1 MLOAD DUP3 MSTORE PUSH1 0x1F NOT SWAP1 SWAP4 ADD SWAP3 PUSH1 0x20 SWAP2 DUP3 ADD SWAP2 ADD PUSH2 0x959 JUMP JUMPDEST MLOAD DUP2 MLOAD PUSH1 0x0 NOT PUSH1 0x20 DUP7 SWAP1 SUB PUSH2 0x100 EXP ADD SWAP1 DUP2 AND SWAP1 NOT SWAP2 SWAP1 SWAP2 AND OR SWAP1 MSTORE POP DUP4 SWAP5 SWAP4 POP POP POP POP JUMP JUMPDEST PUSH2 0x9A6 PUSH2 0xAAA JUMP JUMPDEST DUP4 PUSH1 0x20 ADD MLOAD DUP4 LT PUSH2 0x9C2 JUMPI PUSH2 0x9C2 DUP5 DUP6 PUSH1 0x20 ADD MLOAD PUSH1 0x2 MUL PUSH2 0xA5E JUMP JUMPDEST DUP4 MLOAD DUP1 MLOAD PUSH1 0x20 DUP6 DUP4 ADD ADD DUP5 DUP2 MSTORE8 POP DUP1 DUP6 EQ ISZERO PUSH2 0x9DF JUMPI PUSH1 0x1 DUP2 ADD DUP3 MSTORE JUMPDEST POP SWAP4 SWAP5 SWAP4 POP POP POP POP JUMP JUMPDEST PUSH2 0x9F1 PUSH2 0xAAA JUMP JUMPDEST DUP5 PUSH1 0x20 ADD MLOAD DUP5 DUP4 ADD GT ISZERO PUSH2 0xA0E JUMPI PUSH2 0xA0E DUP6 DUP6 DUP5 ADD PUSH1 0x2 MUL PUSH2 0xA5E JUMP JUMPDEST PUSH1 0x0 PUSH1 0x1 DUP4 PUSH2 0x100 EXP SUB SWAP1 POP DUP6 MLOAD DUP4 DUP7 DUP3 ADD ADD DUP6 DUP4 NOT DUP3 MLOAD AND OR DUP2 MSTORE POP DUP1 MLOAD DUP5 DUP8 ADD GT ISZERO PUSH2 0xA3C JUMPI DUP4 DUP7 ADD DUP2 MSTORE JUMPDEST POP SWAP5 SWAP6 SWAP5 POP POP POP POP POP JUMP JUMPDEST PUSH1 0x0 DUP2 DUP4 GT ISZERO PUSH2 0xA58 JUMPI POP DUP2 PUSH2 0x7B8 JUMP JUMPDEST POP SWAP2 SWAP1 POP JUMP JUMPDEST DUP2 MLOAD PUSH2 0xA6A DUP4 DUP4 PUSH2 0x77E JUMP JUMPDEST POP PUSH2 0x892 DUP4 DUP3 PUSH2 0x898 JUMP JUMPDEST PUSH1 0x40 DUP1 MLOAD PUSH1 0xA0 DUP2 ADD DUP3 MSTORE PUSH1 0x0 DUP1 DUP3 MSTORE PUSH1 0x20 DUP3 ADD DUP2 SWAP1 MSTORE SWAP2 DUP2 ADD DUP3 SWAP1 MSTORE PUSH1 0x60 DUP2 ADD SWAP2 SWAP1 SWAP2 MSTORE PUSH1 0x80 DUP2 ADD PUSH2 0xAA5 PUSH2 0xAAA JUMP JUMPDEST SWAP1 MSTORE SWAP1 JUMP JUMPDEST PUSH1 0x40 MLOAD DUP1 PUSH1 0x40 ADD PUSH1 0x40 MSTORE DUP1 PUSH1 0x60 DUP2 MSTORE PUSH1 0x20 ADD PUSH1 0x0 DUP2 MSTORE POP SWAP1 JUMP INVALID PUSH22 0x6E61626C6520746F207472616E73666572416E644361 PUSH13 0x6C20746F206F7261636C65536F PUSH22 0x726365206D75737420626520746865206F7261636C65 KECCAK256 PUSH16 0x66207468652072657175657374A26469 PUSH17 0x667358221220128A7F3B2DE85BC3C66CE8 SLOAD SELFDESTRUCT PUSH15 0x6C5418051B75581CAB9928864DC84A 0xEE 0xBB PUSH6 0x64736F6C6343 STOP MOD 0xC STOP CALLER ",
  "sha1": "7300f03c5bce8c205e10fbc046d8912ac3d22766",
  "source": "pragma solidity ^0.6.6;\n\nimport \"@chainlink/contracts/src/v0.6/ChainlinkClient.sol\";\n\ncontract GeoDB is ChainlinkClient {\n  \n    uint256 public users;\n    address private oracle;\n    bytes32 private jobId;\n    uint256 private fee;\n    \n    constructor(address _oracle, string memory _jobId, uint256 _fee, address _link) public {\n        if (_link == address(0)) {\n            setPublicChainlinkToken();\n        } else {\n            setChainlinkToken(_link);\n        }\n        // Kovan\n        // oracle = 0x56dd6586DB0D08c6Ce7B2f2805af28616E082455;\n        // jobId = \"ef0e16c96ce04795b261725db827ba32\";\n        // fee = 0.1 * 10 ** 18; // 0.1 LINK\n        oracle = _oracle;\n        jobId = stringToBytes32(_jobId);\n        fee = _fee;\n    }\n    \n    /**\n     * Create a Chainlink request to retrieve API response, find the target\n     * data, then multiply by 1000000000000000000 (to remove decimal places from data).\n     */\n    function requestUsers() public returns (bytes32 requestId) \n    {\n        Chainlink.Request memory req = buildChainlinkRequest(jobId, address(this), this.fulfill.selector);\n        req.add(\"lat\", \"45.7905\");\n        req.add(\"lng\", \"11.9202\");\n        req.add(\"radius\", \"500000\");\n        req.add(\"start\", \"2021-01-01 20:00:00\");\n        req.add(\"end\", \"2021-02-21 20:30:00\");\n        return sendChainlinkRequestTo(oracle, req, fee);\n    }\n    \n    /**\n     * Receive the response in the form of uint256\n     */ \n    function fulfill(bytes32 _requestId, uint256 _users) public recordChainlinkFulfillment(_requestId)\n    {\n        users = _users;\n    }\n\n    function stringToBytes32(string memory source) public pure returns (bytes32 result) {\n        bytes memory tempEmptyStringTest = bytes(source);\n        if (tempEmptyStringTest.length == 0) {\n            return 0x0;\n        }\n\n        assembly {\n            result := mload(add(source, 32))\n        }\n    }\n}\n",
  "sourcePath": "contracts/GeoDB.sol",
  "type": "contract"
}