{
  "abi": [
    {
      "constant": true,
      "inputs": [],
      "name": "callbackAddress",
      "outputs": [
        {
          "name": "",
          "type": "address"
        }
      ],
      "payable": false,
      "stateMutability": "view",
      "type": "function"
    },
    {
      "constant": true,
      "inputs": [],
      "name": "exp_time",
      "outputs": [
        {
          "name": "",
          "type": "uint256"
        }
      ],
      "payable": false,
      "stateMutability": "view",
      "type": "function"
    },
    {
      "constant": false,
      "inputs": [
        {
          "name": "_sender",
          "type": "address"
        },
        {
          "name": "_payment",
          "type": "uint256"
        },
        {
          "name": "_specId",
          "type": "bytes32"
        },
        {
          "name": "_callbackAddress",
          "type": "address"
        },
        {
          "name": "_callbackFunctionId",
          "type": "bytes4"
        },
        {
          "name": "_nonce",
          "type": "uint256"
        },
        {
          "name": "_dataVersion",
          "type": "uint256"
        },
        {
          "name": "_data",
          "type": "bytes"
        }
      ],
      "name": "oracleRequest",
      "outputs": [],
      "payable": false,
      "stateMutability": "nonpayable",
      "type": "function"
    },
    {
      "constant": true,
      "inputs": [],
      "name": "payment",
      "outputs": [
        {
          "name": "",
          "type": "uint256"
        }
      ],
      "payable": false,
      "stateMutability": "view",
      "type": "function"
    },
    {
      "constant": false,
      "inputs": [
        {
          "name": "_requestId",
          "type": "bytes32"
        },
        {
          "name": "_payment",
          "type": "uint256"
        },
        {
          "name": "_callbackAddress",
          "type": "address"
        },
        {
          "name": "_callbackFunctionId",
          "type": "bytes4"
        },
        {
          "name": "_expiration",
          "type": "uint256"
        },
        {
          "name": "_data",
          "type": "bytes32"
        }
      ],
      "name": "fulfillOracleRequest",
      "outputs": [
        {
          "name": "",
          "type": "bool"
        }
      ],
      "payable": false,
      "stateMutability": "nonpayable",
      "type": "function"
    },
    {
      "constant": true,
      "inputs": [],
      "name": "EXPIRY_TIME",
      "outputs": [
        {
          "name": "",
          "type": "uint256"
        }
      ],
      "payable": false,
      "stateMutability": "view",
      "type": "function"
    },
    {
      "constant": true,
      "inputs": [],
      "name": "withdrawable",
      "outputs": [
        {
          "name": "",
          "type": "uint256"
        }
      ],
      "payable": false,
      "stateMutability": "view",
      "type": "function"
    },
    {
      "constant": false,
      "inputs": [
        {
          "name": "_requestId",
          "type": "bytes32"
        },
        {
          "name": "_payment",
          "type": "uint256"
        },
        {
          "name": "_callbackFunc",
          "type": "bytes4"
        },
        {
          "name": "_expiration",
          "type": "uint256"
        }
      ],
      "name": "cancelOracleRequest",
      "outputs": [],
      "payable": false,
      "stateMutability": "nonpayable",
      "type": "function"
    },
    {
      "constant": false,
      "inputs": [],
      "name": "renounceOwnership",
      "outputs": [],
      "payable": false,
      "stateMutability": "nonpayable",
      "type": "function"
    },
    {
      "constant": false,
      "inputs": [
        {
          "name": "_node",
          "type": "address"
        },
        {
          "name": "_allowed",
          "type": "bool"
        }
      ],
      "name": "setFulfillmentPermission",
      "outputs": [],
      "payable": false,
      "stateMutability": "nonpayable",
      "type": "function"
    },
    {
      "constant": true,
      "inputs": [
        {
          "name": "",
          "type": "bytes32"
        }
      ],
      "name": "commitments",
      "outputs": [
        {
          "name": "",
          "type": "bytes32"
        }
      ],
      "payable": false,
      "stateMutability": "view",
      "type": "function"
    },
    {
      "constant": true,
      "inputs": [],
      "name": "owner",
      "outputs": [
        {
          "name": "",
          "type": "address"
        }
      ],
      "payable": false,
      "stateMutability": "view",
      "type": "function"
    },
    {
      "constant": true,
      "inputs": [],
      "name": "callbackFunctionId",
      "outputs": [
        {
          "name": "",
          "type": "bytes4"
        }
      ],
      "payable": false,
      "stateMutability": "view",
      "type": "function"
    },
    {
      "constant": false,
      "inputs": [
        {
          "name": "_sender",
          "type": "address"
        },
        {
          "name": "_amount",
          "type": "uint256"
        },
        {
          "name": "_data",
          "type": "bytes"
        }
      ],
      "name": "onTokenTransfer",
      "outputs": [],
      "payable": false,
      "stateMutability": "nonpayable",
      "type": "function"
    },
    {
      "constant": true,
      "inputs": [
        {
          "name": "_node",
          "type": "address"
        }
      ],
      "name": "getAuthorizationStatus",
      "outputs": [
        {
          "name": "",
          "type": "bool"
        }
      ],
      "payable": false,
      "stateMutability": "view",
      "type": "function"
    },
    {
      "constant": false,
      "inputs": [
        {
          "name": "_newOwner",
          "type": "address"
        }
      ],
      "name": "transferOwnership",
      "outputs": [],
      "payable": false,
      "stateMutability": "nonpayable",
      "type": "function"
    },
    {
      "constant": false,
      "inputs": [
        {
          "name": "_recipient",
          "type": "address"
        },
        {
          "name": "_amount",
          "type": "uint256"
        }
      ],
      "name": "withdraw",
      "outputs": [],
      "payable": false,
      "stateMutability": "nonpayable",
      "type": "function"
    },
    {
      "inputs": [
        {
          "name": "_link",
          "type": "address"
        }
      ],
      "payable": false,
      "stateMutability": "nonpayable",
      "type": "constructor"
    },
    {
      "anonymous": false,
      "inputs": [
        {
          "indexed": true,
          "name": "specId",
          "type": "bytes32"
        },
        {
          "indexed": false,
          "name": "requester",
          "type": "address"
        },
        {
          "indexed": false,
          "name": "requestId",
          "type": "bytes32"
        },
        {
          "indexed": false,
          "name": "payment",
          "type": "uint256"
        },
        {
          "indexed": false,
          "name": "callbackAddr",
          "type": "address"
        },
        {
          "indexed": false,
          "name": "callbackFunctionId",
          "type": "bytes4"
        },
        {
          "indexed": false,
          "name": "cancelExpiration",
          "type": "uint256"
        },
        {
          "indexed": false,
          "name": "dataVersion",
          "type": "uint256"
        },
        {
          "indexed": false,
          "name": "data",
          "type": "bytes"
        }
      ],
      "name": "OracleRequest",
      "type": "event"
    },
    {
      "anonymous": false,
      "inputs": [
        {
          "indexed": true,
          "name": "requestId",
          "type": "bytes32"
        }
      ],
      "name": "CancelOracleRequest",
      "type": "event"
    },
    {
      "anonymous": false,
      "inputs": [
        {
          "indexed": true,
          "name": "previousOwner",
          "type": "address"
        }
      ],
      "name": "OwnershipRenounced",
      "type": "event"
    },
    {
      "anonymous": false,
      "inputs": [
        {
          "indexed": true,
          "name": "previousOwner",
          "type": "address"
        },
        {
          "indexed": true,
          "name": "newOwner",
          "type": "address"
        }
      ],
      "name": "OwnershipTransferred",
      "type": "event"
    }
  ],
  "bytecode": "60806040526000600155600160075534801561001a57600080fd5b50604051602080611355833981016040525160008054600160a060020a0319908116331790915560048054600160a060020a03909316929091169190911790556112ec806100696000396000f3006080604052600436106100d65763ffffffff60e060020a600035041662df475e81146100db5780632db7f1f41461010c578063404299461461013357806342f6487a146101865780634ab0d1901461019b5780634b602282146101e957806350188301146101fe5780636ee4d55314610213578063715018a61461023e5780637fcd56db14610253578063839df945146102795780638da5cb5b146102915780639c1b2839146102a6578063a4c0ed36146102d8578063d3e9c31414610341578063f2fde38b14610362578063f3fef3a314610383575b600080fd5b3480156100e757600080fd5b506100f06103a7565b60408051600160a060020a039092168252519081900360200190f35b34801561011857600080fd5b506101216103b6565b60408051918252519081900360200190f35b34801561013f57600080fd5b50610184600160a060020a03600480358216916024803592604435926064351691600160e060020a0319608435169160a4359160c4359160e4359182019101356103bc565b005b34801561019257600080fd5b506101216107dd565b3480156101a757600080fd5b506101d5600435602435600160a060020a0360443516600160e060020a03196064351660843560a4356107e3565b604080519115158252519081900360200190f35b3480156101f557600080fd5b50610121610add565b34801561020a57600080fd5b50610121610ae3565b34801561021f57600080fd5b50610184600435602435600160e060020a031960443516606435610b14565b34801561024a57600080fd5b50610184610d5b565b34801561025f57600080fd5b50610184600160a060020a03600435166024351515610dc7565b34801561028557600080fd5b50610121600435610e09565b34801561029d57600080fd5b506100f0610e1b565b3480156102b257600080fd5b506102bb610e2a565b60408051600160e060020a03199092168252519081900360200190f35b3480156102e457600080fd5b50604080516020600460443581810135601f8101849004840285018401909552848452610184948235600160a060020a0316946024803595369594606494920191908190840183828082843750949750610e4e9650505050505050565b34801561034d57600080fd5b506101d5600160a060020a0360043516611073565b34801561036e57600080fd5b50610184600160a060020a0360043516611091565b34801561038f57600080fd5b50610184600160a060020a03600435166024356110b4565b600254600160a060020a031681565b60035481565b6004546000908190600160a060020a03163314610423576040805160e560020a62461bcd02815260206004820152601360248201527f4d75737420757365204c494e4b20746f6b656e00000000000000000000000000604482015290519081900360640190fd5b6004548890600160a060020a038083169116141561048b576040805160e560020a62461bcd02815260206004820152601760248201527f43616e6e6f742063616c6c6261636b20746f204c494e4b000000000000000000604482015290519081900360640190fd5b60018b90556002805473ffffffffffffffffffffffffffffffffffffffff1916600160a060020a038b81169190911777ffffffff000000000000000000000000000000000000000019167401000000000000000000000000000000000000000060e060020a8c04021790915560408051918e166c010000000000000000000000000260208084019190915260348084018b905282518085039091018152605490930191829052825182918401908083835b6020831061055b5780518252601f19909201916020918201910161053c565b51815160209384036101000a600019018019909216911617905260408051929094018290039091206000818152600590925292902054919650501591506105ee9050576040805160e560020a62461bcd02815260206004820152601460248201527f4d75737420757365206120756e69717565204944000000000000000000000000604482015290519081900360640190fd5b6106004261012c63ffffffff61121e16565b60038190556040805160208082018f90526c01000000000000000000000000600160a060020a038e160282840152600160e060020a03198c1660548301526058808301859052835180840390910181526078909201928390528151939550909282918401908083835b602083106106885780518252601f199092019160209182019101610669565b6001836020036101000a0380198251168184511680821785525050505050509050019150506040518091039020600560008560001916600019168152602001908152602001600020816000191690555089600019167fd8d7ecc4800d25fa53ce0372f13a416d98907a7ef3d8d3bdd79cf4fe75529c658d858e8d8d888d8d8d604051808a600160a060020a0316600160a060020a03168152602001896000191660001916815260200188815260200187600160a060020a0316600160a060020a03168152602001867bffffffffffffffffffffffffffffffffffffffffffffffffffffffff19167bffffffffffffffffffffffffffffffffffffffffffffffffffffffff1916815260200185815260200184815260200180602001828103825284848281815260200192508082843760405192018290039c50909a5050505050505050505050a2505050505050505050505050565b60015481565b33600090815260066020526040812054819060ff168061080d5750600054600160a060020a031633145b1515610889576040805160e560020a62461bcd02815260206004820152602a60248201527f4e6f7420616e20617574686f72697a6564206e6f646520746f2066756c66696c60448201527f6c20726571756573747300000000000000000000000000000000000000000000606482015290519081900360840190fd5b600088815260056020526040902054889015156108f0576040805160e560020a62461bcd02815260206004820152601b60248201527f4d757374206861766520612076616c6964207265717565737449640000000000604482015290519081900360640190fd5b6040805160208082018b90526c01000000000000000000000000600160a060020a038b160282840152600160e060020a031989166054830152605880830189905283518084039091018152607890920192839052815191929182918401908083835b602083106109715780518252601f199092019160209182019101610952565b51815160209384036101000a6000190180199092169116179052604080519290940182900390912060008f81526005909252929020549195505084149150610a059050576040805160e560020a62461bcd02815260206004820152601e60248201527f506172616d7320646f206e6f74206d6174636820726571756573742049440000604482015290519081900360640190fd5b600754610a18908963ffffffff61121e16565b60075560008981526005602052604081205562061a805a1015610a85576040805160e560020a62461bcd02815260206004820181905260248201527f4d7573742070726f7669646520636f6e73756d657220656e6f75676820676173604482015290519081900360640190fd5b6040805163ffffffff60e060020a808a04918216028252600482018c9052602482018790529151600160a060020a038a169291604480820192600092909190829003018183875af19c9b505050505050505050505050565b61012c81565b60008054600160a060020a03163314610afb57600080fd5b600754610b0f90600163ffffffff61123116565b905090565b6040805160208082018690526c01000000000000000000000000330282840152600160e060020a0319851660548301526058808301859052835180840390910181526078909201928390528151600093918291908401908083835b60208310610b8e5780518252601f199092019160209182019101610b6f565b51815160209384036101000a6000190180199092169116179052604080519290940182900390912060008b81526005909252929020549194505083149150610c229050576040805160e560020a62461bcd02815260206004820152601e60248201527f506172616d7320646f206e6f74206d6174636820726571756573742049440000604482015290519081900360640190fd5b42821115610c7a576040805160e560020a62461bcd02815260206004820152601660248201527f52657175657374206973206e6f74206578706972656400000000000000000000604482015290519081900360640190fd5b6000858152600560205260408082208290555186917fa7842b9ec549398102c0d91b1b9919b2f20558aefdadf57528a95c6cd3292e9391a260048054604080517fa9059cbb00000000000000000000000000000000000000000000000000000000815233938101939093526024830187905251600160a060020a039091169163a9059cbb9160448083019260209291908290030181600087803b158015610d2057600080fd5b505af1158015610d34573d6000803e3d6000fd5b505050506040513d6020811015610d4a57600080fd5b50511515610d5457fe5b5050505050565b600054600160a060020a03163314610d7257600080fd5b60008054604051600160a060020a03909116917ff8df31144d9c2f0f6b59d69b8b98abd5459d07f2742c4df920b25aae33c6482091a26000805473ffffffffffffffffffffffffffffffffffffffff19169055565b600054600160a060020a03163314610dde57600080fd5b600160a060020a03919091166000908152600660205260409020805460ff1916911515919091179055565b60056020526000908152604090205481565b600054600160a060020a031681565b60025474010000000000000000000000000000000000000000900460e060020a0281565b600454600160a060020a03163314610eb0576040805160e560020a62461bcd02815260206004820152601360248201527f4d75737420757365204c494e4b20746f6b656e00000000000000000000000000604482015290519081900360640190fd5b8051819060441115610f0c576040805160e560020a62461bcd02815260206004820152601660248201527f496e76616c69642072657175657374206c656e67746800000000000000000000604482015290519081900360640190fd5b60208201518290600160e060020a031981167f404299460000000000000000000000000000000000000000000000000000000014610f94576040805160e560020a62461bcd02815260206004820152601e60248201527f4d757374207573652077686974656c69737465642066756e6374696f6e730000604482015290519081900360640190fd5b85602485015284604485015230600160a060020a03168460405180828051906020019080838360005b83811015610fd5578181015183820152602001610fbd565b50505050905090810190601f1680156110025780820380516001836020036101000a031916815260200191505b50915050600060405180830381855af4915050151561106b576040805160e560020a62461bcd02815260206004820152601860248201527f556e61626c6520746f2063726561746520726571756573740000000000000000604482015290519081900360640190fd5b505050505050565b600160a060020a031660009081526006602052604090205460ff1690565b600054600160a060020a031633146110a857600080fd5b6110b181611243565b50565b600054600160a060020a031633146110cb57600080fd5b806110dd81600163ffffffff61121e16565b600754101561115c576040805160e560020a62461bcd02815260206004820152603560248201527f416d6f756e74207265717565737465642069732067726561746572207468616e60448201527f20776974686472617761626c652062616c616e63650000000000000000000000606482015290519081900360840190fd5b60075461116f908363ffffffff61123116565b60075560048054604080517fa9059cbb000000000000000000000000000000000000000000000000000000008152600160a060020a0387811694820194909452602481018690529051929091169163a9059cbb916044808201926020929091908290030181600087803b1580156111e557600080fd5b505af11580156111f9573d6000803e3d6000fd5b505050506040513d602081101561120f57600080fd5b5051151561121957fe5b505050565b8181018281101561122b57fe5b92915050565b60008282111561123d57fe5b50900390565b600160a060020a038116151561125857600080fd5b60008054604051600160a060020a03808516939216917f8be0079c531659141344cd1fd0a4f28419497f9722a3daafe3b4186f6b6457e091a36000805473ffffffffffffffffffffffffffffffffffffffff1916600160a060020a03929092169190911790555600a165627a7a72305820c501d06d3a4f9f0225ee0a6c256588b7b141bf56805129089c7843f9e672f47a0029",
  "bytecodeSha1": "2a6329c8a29818387a719177b33d124ee34a6d02",
  "compiler": {
    "evm_version": "byzantium",
    "optimizer": {
      "enabled": true,
      "runs": 200
    },
    "version": "0.4.24+commit.e67f0147"
  },
  "contractName": "Oracle",
  "language": "Solidity",
  "natspec": {
    "methods": {
      "cancelOracleRequest(bytes32,uint256,bytes4,uint256)": {
        "details": "Given params must hash to a commitment stored on the contract in order for the request to be valid Emits CancelOracleRequest event.",
        "notice": "Allows requesters to cancel requests sent to this oracle contract. Will transfer the LINK sent for the request back to the requester's address.",
        "params": {
          "_callbackFunc": "The requester's specified callback address",
          "_expiration": "The time of the expiration for the request",
          "_payment": "The amount of payment given (specified in wei)",
          "_requestId": "The request ID"
        }
      },
      "fulfillOracleRequest(bytes32,uint256,address,bytes4,uint256,bytes32)": {
        "details": "Given params must hash back to the commitment stored from `oracleRequest`. Will call the callback address' callback function without bubbling up error checking in a `require` so that the node can get paid.",
        "notice": "Called by the Chainlink node to fulfill requests",
        "params": {
          "_callbackAddress": "The callback address to call for fulfillment",
          "_callbackFunctionId": "The callback function ID to use for fulfillment",
          "_data": "The data to return to the consuming contract",
          "_expiration": "The expiration that the node should respond by before the requester can cancel",
          "_payment": "The payment amount that will be released for the oracle (specified in wei)",
          "_requestId": "The fulfillment request ID that must match the requester's"
        },
        "return": "Status if the external call was successful"
      },
      "getAuthorizationStatus(address)": {
        "notice": "Use this to check if a node is authorized for fulfilling requests",
        "params": {
          "_node": "The address of the Chainlink node"
        },
        "return": "The authorization status of the node"
      },
      "onTokenTransfer(address,uint256,bytes)": {
        "details": "The data payload's first 2 words will be overwritten by the `_sender` and `_amount` values to ensure correctness. Calls oracleRequest.",
        "notice": "Called when LINK is sent to the contract via `transferAndCall`",
        "params": {
          "_amount": "Amount of LINK sent (specified in wei)",
          "_data": "Payload of the transaction",
          "_sender": "Address of the sender"
        }
      },
      "oracleRequest(address,uint256,bytes32,address,bytes4,uint256,uint256,bytes)": {
        "details": "Stores the hash of the params as the on-chain commitment for the request. Emits OracleRequest event for the Chainlink node to detect.",
        "notice": "Creates the Chainlink request",
        "params": {
          "_callbackAddress": "The callback address for the response",
          "_callbackFunctionId": "The callback function ID for the response",
          "_data": "The CBOR payload of the request",
          "_dataVersion": "The specified data version",
          "_nonce": "The nonce sent by the requester",
          "_payment": "The amount of payment given (specified in wei)",
          "_sender": "The sender of the request",
          "_specId": "The Job Specification ID"
        }
      },
      "renounceOwnership()": {
        "details": "Allows the current owner to relinquish control of the contract.",
        "notice": "Renouncing to ownership will leave the contract without an owner. It will not be possible to call the functions with the `onlyOwner` modifier anymore."
      },
      "setFulfillmentPermission(address,bool)": {
        "notice": "Sets the fulfillment permission for a given node. Use `true` to allow, `false` to disallow.",
        "params": {
          "_allowed": "Bool value to determine if the node can fulfill requests",
          "_node": "The address of the Chainlink node"
        }
      },
      "transferOwnership(address)": {
        "details": "Allows the current owner to transfer control of the contract to a newOwner.",
        "params": {
          "_newOwner": "The address to transfer ownership to."
        }
      },
      "withdraw(address,uint256)": {
        "details": "The owner of the contract can be another wallet and does not have to be a Chainlink node",
        "notice": "Allows the node operator to withdraw earned LINK to a given address",
        "params": {
          "_amount": "The amount to send (specified in wei)",
          "_recipient": "The address to send the LINK token to"
        }
      },
      "withdrawable()": {
        "details": "We use `ONE_FOR_CONSISTENT_GAS_COST` in place of 0 in storage",
        "notice": "Displays the amount of LINK that is available for the node operator to withdraw",
        "return": "The amount of withdrawable LINK on the contract"
      }
    },
    "title": "The Chainlink Oracle contract"
  },
  "opcodes": "PUSH1 0x80 PUSH1 0x40 MSTORE PUSH1 0x4 CALLDATASIZE LT PUSH2 0xD6 JUMPI PUSH4 0xFFFFFFFF PUSH1 0xE0 PUSH1 0x2 EXP PUSH1 0x0 CALLDATALOAD DIV AND PUSH3 0xDF475E DUP2 EQ PUSH2 0xDB JUMPI DUP1 PUSH4 0x2DB7F1F4 EQ PUSH2 0x10C JUMPI DUP1 PUSH4 0x40429946 EQ PUSH2 0x133 JUMPI DUP1 PUSH4 0x42F6487A EQ PUSH2 0x186 JUMPI DUP1 PUSH4 0x4AB0D190 EQ PUSH2 0x19B JUMPI DUP1 PUSH4 0x4B602282 EQ PUSH2 0x1E9 JUMPI DUP1 PUSH4 0x50188301 EQ PUSH2 0x1FE JUMPI DUP1 PUSH4 0x6EE4D553 EQ PUSH2 0x213 JUMPI DUP1 PUSH4 0x715018A6 EQ PUSH2 0x23E JUMPI DUP1 PUSH4 0x7FCD56DB EQ PUSH2 0x253 JUMPI DUP1 PUSH4 0x839DF945 EQ PUSH2 0x279 JUMPI DUP1 PUSH4 0x8DA5CB5B EQ PUSH2 0x291 JUMPI DUP1 PUSH4 0x9C1B2839 EQ PUSH2 0x2A6 JUMPI DUP1 PUSH4 0xA4C0ED36 EQ PUSH2 0x2D8 JUMPI DUP1 PUSH4 0xD3E9C314 EQ PUSH2 0x341 JUMPI DUP1 PUSH4 0xF2FDE38B EQ PUSH2 0x362 JUMPI DUP1 PUSH4 0xF3FEF3A3 EQ PUSH2 0x383 JUMPI JUMPDEST PUSH1 0x0 DUP1 REVERT JUMPDEST CALLVALUE DUP1 ISZERO PUSH2 0xE7 JUMPI PUSH1 0x0 DUP1 REVERT JUMPDEST POP PUSH2 0xF0 PUSH2 0x3A7 JUMP JUMPDEST PUSH1 0x40 DUP1 MLOAD PUSH1 0x1 PUSH1 0xA0 PUSH1 0x2 EXP SUB SWAP1 SWAP3 AND DUP3 MSTORE MLOAD SWAP1 DUP2 SWAP1 SUB PUSH1 0x20 ADD SWAP1 RETURN JUMPDEST CALLVALUE DUP1 ISZERO PUSH2 0x118 JUMPI PUSH1 0x0 DUP1 REVERT JUMPDEST POP PUSH2 0x121 PUSH2 0x3B6 JUMP JUMPDEST PUSH1 0x40 DUP1 MLOAD SWAP2 DUP3 MSTORE MLOAD SWAP1 DUP2 SWAP1 SUB PUSH1 0x20 ADD SWAP1 RETURN JUMPDEST CALLVALUE DUP1 ISZERO PUSH2 0x13F JUMPI PUSH1 0x0 DUP1 REVERT JUMPDEST POP PUSH2 0x184 PUSH1 0x1 PUSH1 0xA0 PUSH1 0x2 EXP SUB PUSH1 0x4 DUP1 CALLDATALOAD DUP3 AND SWAP2 PUSH1 0x24 DUP1 CALLDATALOAD SWAP3 PUSH1 0x44 CALLDATALOAD SWAP3 PUSH1 0x64 CALLDATALOAD AND SWAP2 PUSH1 0x1 PUSH1 0xE0 PUSH1 0x2 EXP SUB NOT PUSH1 0x84 CALLDATALOAD AND SWAP2 PUSH1 0xA4 CALLDATALOAD SWAP2 PUSH1 0xC4 CALLDATALOAD SWAP2 PUSH1 0xE4 CALLDATALOAD SWAP2 DUP3 ADD SWAP2 ADD CALLDATALOAD PUSH2 0x3BC JUMP JUMPDEST STOP JUMPDEST CALLVALUE DUP1 ISZERO PUSH2 0x192 JUMPI PUSH1 0x0 DUP1 REVERT JUMPDEST POP PUSH2 0x121 PUSH2 0x7DD JUMP JUMPDEST CALLVALUE DUP1 ISZERO PUSH2 0x1A7 JUMPI PUSH1 0x0 DUP1 REVERT JUMPDEST POP PUSH2 0x1D5 PUSH1 0x4 CALLDATALOAD PUSH1 0x24 CALLDATALOAD PUSH1 0x1 PUSH1 0xA0 PUSH1 0x2 EXP SUB PUSH1 0x44 CALLDATALOAD AND PUSH1 0x1 PUSH1 0xE0 PUSH1 0x2 EXP SUB NOT PUSH1 0x64 CALLDATALOAD AND PUSH1 0x84 CALLDATALOAD PUSH1 0xA4 CALLDATALOAD PUSH2 0x7E3 JUMP JUMPDEST PUSH1 0x40 DUP1 MLOAD SWAP2 ISZERO ISZERO DUP3 MSTORE MLOAD SWAP1 DUP2 SWAP1 SUB PUSH1 0x20 ADD SWAP1 RETURN JUMPDEST CALLVALUE DUP1 ISZERO PUSH2 0x1F5 JUMPI PUSH1 0x0 DUP1 REVERT JUMPDEST POP PUSH2 0x121 PUSH2 0xADD JUMP JUMPDEST CALLVALUE DUP1 ISZERO PUSH2 0x20A JUMPI PUSH1 0x0 DUP1 REVERT JUMPDEST POP PUSH2 0x121 PUSH2 0xAE3 JUMP JUMPDEST CALLVALUE DUP1 ISZERO PUSH2 0x21F JUMPI PUSH1 0x0 DUP1 REVERT JUMPDEST POP PUSH2 0x184 PUSH1 0x4 CALLDATALOAD PUSH1 0x24 CALLDATALOAD PUSH1 0x1 PUSH1 0xE0 PUSH1 0x2 EXP SUB NOT PUSH1 0x44 CALLDATALOAD AND PUSH1 0x64 CALLDATALOAD PUSH2 0xB14 JUMP JUMPDEST CALLVALUE DUP1 ISZERO PUSH2 0x24A JUMPI PUSH1 0x0 DUP1 REVERT JUMPDEST POP PUSH2 0x184 PUSH2 0xD5B JUMP JUMPDEST CALLVALUE DUP1 ISZERO PUSH2 0x25F JUMPI PUSH1 0x0 DUP1 REVERT JUMPDEST POP PUSH2 0x184 PUSH1 0x1 PUSH1 0xA0 PUSH1 0x2 EXP SUB PUSH1 0x4 CALLDATALOAD AND PUSH1 0x24 CALLDATALOAD ISZERO ISZERO PUSH2 0xDC7 JUMP JUMPDEST CALLVALUE DUP1 ISZERO PUSH2 0x285 JUMPI PUSH1 0x0 DUP1 REVERT JUMPDEST POP PUSH2 0x121 PUSH1 0x4 CALLDATALOAD PUSH2 0xE09 JUMP JUMPDEST CALLVALUE DUP1 ISZERO PUSH2 0x29D JUMPI PUSH1 0x0 DUP1 REVERT JUMPDEST POP PUSH2 0xF0 PUSH2 0xE1B JUMP JUMPDEST CALLVALUE DUP1 ISZERO PUSH2 0x2B2 JUMPI PUSH1 0x0 DUP1 REVERT JUMPDEST POP PUSH2 0x2BB PUSH2 0xE2A JUMP JUMPDEST PUSH1 0x40 DUP1 MLOAD PUSH1 0x1 PUSH1 0xE0 PUSH1 0x2 EXP SUB NOT SWAP1 SWAP3 AND DUP3 MSTORE MLOAD SWAP1 DUP2 SWAP1 SUB PUSH1 0x20 ADD SWAP1 RETURN JUMPDEST CALLVALUE DUP1 ISZERO PUSH2 0x2E4 JUMPI PUSH1 0x0 DUP1 REVERT JUMPDEST POP PUSH1 0x40 DUP1 MLOAD PUSH1 0x20 PUSH1 0x4 PUSH1 0x44 CALLDATALOAD DUP2 DUP2 ADD CALLDATALOAD PUSH1 0x1F DUP2 ADD DUP5 SWAP1 DIV DUP5 MUL DUP6 ADD DUP5 ADD SWAP1 SWAP6 MSTORE DUP5 DUP5 MSTORE PUSH2 0x184 SWAP5 DUP3 CALLDATALOAD PUSH1 0x1 PUSH1 0xA0 PUSH1 0x2 EXP SUB AND SWAP5 PUSH1 0x24 DUP1 CALLDATALOAD SWAP6 CALLDATASIZE SWAP6 SWAP5 PUSH1 0x64 SWAP5 SWAP3 ADD SWAP2 SWAP1 DUP2 SWAP1 DUP5 ADD DUP4 DUP3 DUP1 DUP3 DUP5 CALLDATACOPY POP SWAP5 SWAP8 POP PUSH2 0xE4E SWAP7 POP POP POP POP POP POP POP JUMP JUMPDEST CALLVALUE DUP1 ISZERO PUSH2 0x34D JUMPI PUSH1 0x0 DUP1 REVERT JUMPDEST POP PUSH2 0x1D5 PUSH1 0x1 PUSH1 0xA0 PUSH1 0x2 EXP SUB PUSH1 0x4 CALLDATALOAD AND PUSH2 0x1073 JUMP JUMPDEST CALLVALUE DUP1 ISZERO PUSH2 0x36E JUMPI PUSH1 0x0 DUP1 REVERT JUMPDEST POP PUSH2 0x184 PUSH1 0x1 PUSH1 0xA0 PUSH1 0x2 EXP SUB PUSH1 0x4 CALLDATALOAD AND PUSH2 0x1091 JUMP JUMPDEST CALLVALUE DUP1 ISZERO PUSH2 0x38F JUMPI PUSH1 0x0 DUP1 REVERT JUMPDEST POP PUSH2 0x184 PUSH1 0x1 PUSH1 0xA0 PUSH1 0x2 EXP SUB PUSH1 0x4 CALLDATALOAD AND PUSH1 0x24 CALLDATALOAD PUSH2 0x10B4 JUMP JUMPDEST PUSH1 0x2 SLOAD PUSH1 0x1 PUSH1 0xA0 PUSH1 0x2 EXP SUB AND DUP2 JUMP JUMPDEST PUSH1 0x3 SLOAD DUP2 JUMP JUMPDEST PUSH1 0x4 SLOAD PUSH1 0x0 SWAP1 DUP2 SWAP1 PUSH1 0x1 PUSH1 0xA0 PUSH1 0x2 EXP SUB AND CALLER EQ PUSH2 0x423 JUMPI PUSH1 0x40 DUP1 MLOAD PUSH1 0xE5 PUSH1 0x2 EXP PUSH3 0x461BCD MUL DUP2 MSTORE PUSH1 0x20 PUSH1 0x4 DUP3 ADD MSTORE PUSH1 0x13 PUSH1 0x24 DUP3 ADD MSTORE PUSH32 0x4D75737420757365204C494E4B20746F6B656E00000000000000000000000000 PUSH1 0x44 DUP3 ADD MSTORE SWAP1 MLOAD SWAP1 DUP2 SWAP1 SUB PUSH1 0x64 ADD SWAP1 REVERT JUMPDEST PUSH1 0x4 SLOAD DUP9 SWAP1 PUSH1 0x1 PUSH1 0xA0 PUSH1 0x2 EXP SUB DUP1 DUP4 AND SWAP2 AND EQ ISZERO PUSH2 0x48B JUMPI PUSH1 0x40 DUP1 MLOAD PUSH1 0xE5 PUSH1 0x2 EXP PUSH3 0x461BCD MUL DUP2 MSTORE PUSH1 0x20 PUSH1 0x4 DUP3 ADD MSTORE PUSH1 0x17 PUSH1 0x24 DUP3 ADD MSTORE PUSH32 0x43616E6E6F742063616C6C6261636B20746F204C494E4B000000000000000000 PUSH1 0x44 DUP3 ADD MSTORE SWAP1 MLOAD SWAP1 DUP2 SWAP1 SUB PUSH1 0x64 ADD SWAP1 REVERT JUMPDEST PUSH1 0x1 DUP12 SWAP1 SSTORE PUSH1 0x2 DUP1 SLOAD PUSH20 0xFFFFFFFFFFFFFFFFFFFFFFFFFFFFFFFFFFFFFFFF NOT AND PUSH1 0x1 PUSH1 0xA0 PUSH1 0x2 EXP SUB DUP12 DUP2 AND SWAP2 SWAP1 SWAP2 OR PUSH24 0xFFFFFFFF0000000000000000000000000000000000000000 NOT AND PUSH21 0x10000000000000000000000000000000000000000 PUSH1 0xE0 PUSH1 0x2 EXP DUP13 DIV MUL OR SWAP1 SWAP2 SSTORE PUSH1 0x40 DUP1 MLOAD SWAP2 DUP15 AND PUSH13 0x1000000000000000000000000 MUL PUSH1 0x20 DUP1 DUP5 ADD SWAP2 SWAP1 SWAP2 MSTORE PUSH1 0x34 DUP1 DUP5 ADD DUP12 SWAP1 MSTORE DUP3 MLOAD DUP1 DUP6 SUB SWAP1 SWAP2 ADD DUP2 MSTORE PUSH1 0x54 SWAP1 SWAP4 ADD SWAP2 DUP3 SWAP1 MSTORE DUP3 MLOAD DUP3 SWAP2 DUP5 ADD SWAP1 DUP1 DUP4 DUP4 JUMPDEST PUSH1 0x20 DUP4 LT PUSH2 0x55B JUMPI DUP1 MLOAD DUP3 MSTORE PUSH1 0x1F NOT SWAP1 SWAP3 ADD SWAP2 PUSH1 0x20 SWAP2 DUP3 ADD SWAP2 ADD PUSH2 0x53C JUMP JUMPDEST MLOAD DUP2 MLOAD PUSH1 0x20 SWAP4 DUP5 SUB PUSH2 0x100 EXP PUSH1 0x0 NOT ADD DUP1 NOT SWAP1 SWAP3 AND SWAP2 AND OR SWAP1 MSTORE PUSH1 0x40 DUP1 MLOAD SWAP3 SWAP1 SWAP5 ADD DUP3 SWAP1 SUB SWAP1 SWAP2 KECCAK256 PUSH1 0x0 DUP2 DUP2 MSTORE PUSH1 0x5 SWAP1 SWAP3 MSTORE SWAP3 SWAP1 KECCAK256 SLOAD SWAP2 SWAP7 POP POP ISZERO SWAP2 POP PUSH2 0x5EE SWAP1 POP JUMPI PUSH1 0x40 DUP1 MLOAD PUSH1 0xE5 PUSH1 0x2 EXP PUSH3 0x461BCD MUL DUP2 MSTORE PUSH1 0x20 PUSH1 0x4 DUP3 ADD MSTORE PUSH1 0x14 PUSH1 0x24 DUP3 ADD MSTORE PUSH32 0x4D75737420757365206120756E69717565204944000000000000000000000000 PUSH1 0x44 DUP3 ADD MSTORE SWAP1 MLOAD SWAP1 DUP2 SWAP1 SUB PUSH1 0x64 ADD SWAP1 REVERT JUMPDEST PUSH2 0x600 TIMESTAMP PUSH2 0x12C PUSH4 0xFFFFFFFF PUSH2 0x121E AND JUMP JUMPDEST PUSH1 0x3 DUP2 SWAP1 SSTORE PUSH1 0x40 DUP1 MLOAD PUSH1 0x20 DUP1 DUP3 ADD DUP16 SWAP1 MSTORE PUSH13 0x1000000000000000000000000 PUSH1 0x1 PUSH1 0xA0 PUSH1 0x2 EXP SUB DUP15 AND MUL DUP3 DUP5 ADD MSTORE PUSH1 0x1 PUSH1 0xE0 PUSH1 0x2 EXP SUB NOT DUP13 AND PUSH1 0x54 DUP4 ADD MSTORE PUSH1 0x58 DUP1 DUP4 ADD DUP6 SWAP1 MSTORE DUP4 MLOAD DUP1 DUP5 SUB SWAP1 SWAP2 ADD DUP2 MSTORE PUSH1 0x78 SWAP1 SWAP3 ADD SWAP3 DUP4 SWAP1 MSTORE DUP2 MLOAD SWAP4 SWAP6 POP SWAP1 SWAP3 DUP3 SWAP2 DUP5 ADD SWAP1 DUP1 DUP4 DUP4 JUMPDEST PUSH1 0x20 DUP4 LT PUSH2 0x688 JUMPI DUP1 MLOAD DUP3 MSTORE PUSH1 0x1F NOT SWAP1 SWAP3 ADD SWAP2 PUSH1 0x20 SWAP2 DUP3 ADD SWAP2 ADD PUSH2 0x669 JUMP JUMPDEST PUSH1 0x1 DUP4 PUSH1 0x20 SUB PUSH2 0x100 EXP SUB DUP1 NOT DUP3 MLOAD AND DUP2 DUP5 MLOAD AND DUP1 DUP3 OR DUP6 MSTORE POP POP POP POP POP POP SWAP1 POP ADD SWAP2 POP POP PUSH1 0x40 MLOAD DUP1 SWAP2 SUB SWAP1 KECCAK256 PUSH1 0x5 PUSH1 0x0 DUP6 PUSH1 0x0 NOT AND PUSH1 0x0 NOT AND DUP2 MSTORE PUSH1 0x20 ADD SWAP1 DUP2 MSTORE PUSH1 0x20 ADD PUSH1 0x0 KECCAK256 DUP2 PUSH1 0x0 NOT AND SWAP1 SSTORE POP DUP10 PUSH1 0x0 NOT AND PUSH32 0xD8D7ECC4800D25FA53CE0372F13A416D98907A7EF3D8D3BDD79CF4FE75529C65 DUP14 DUP6 DUP15 DUP14 DUP14 DUP9 DUP14 DUP14 DUP14 PUSH1 0x40 MLOAD DUP1 DUP11 PUSH1 0x1 PUSH1 0xA0 PUSH1 0x2 EXP SUB AND PUSH1 0x1 PUSH1 0xA0 PUSH1 0x2 EXP SUB AND DUP2 MSTORE PUSH1 0x20 ADD DUP10 PUSH1 0x0 NOT AND PUSH1 0x0 NOT AND DUP2 MSTORE PUSH1 0x20 ADD DUP9 DUP2 MSTORE PUSH1 0x20 ADD DUP8 PUSH1 0x1 PUSH1 0xA0 PUSH1 0x2 EXP SUB AND PUSH1 0x1 PUSH1 0xA0 PUSH1 0x2 EXP SUB AND DUP2 MSTORE PUSH1 0x20 ADD DUP7 PUSH28 0xFFFFFFFFFFFFFFFFFFFFFFFFFFFFFFFFFFFFFFFFFFFFFFFFFFFFFFFF NOT AND PUSH28 0xFFFFFFFFFFFFFFFFFFFFFFFFFFFFFFFFFFFFFFFFFFFFFFFFFFFFFFFF NOT AND DUP2 MSTORE PUSH1 0x20 ADD DUP6 DUP2 MSTORE PUSH1 0x20 ADD DUP5 DUP2 MSTORE PUSH1 0x20 ADD DUP1 PUSH1 0x20 ADD DUP3 DUP2 SUB DUP3 MSTORE DUP5 DUP5 DUP3 DUP2 DUP2 MSTORE PUSH1 0x20 ADD SWAP3 POP DUP1 DUP3 DUP5 CALLDATACOPY PUSH1 0x40 MLOAD SWAP3 ADD DUP3 SWAP1 SUB SWAP13 POP SWAP1 SWAP11 POP POP POP POP POP POP POP POP POP POP POP LOG2 POP POP POP POP POP POP POP POP POP POP POP POP JUMP JUMPDEST PUSH1 0x1 SLOAD DUP2 JUMP JUMPDEST CALLER PUSH1 0x0 SWAP1 DUP2 MSTORE PUSH1 0x6 PUSH1 0x20 MSTORE PUSH1 0x40 DUP2 KECCAK256 SLOAD DUP2 SWAP1 PUSH1 0xFF AND DUP1 PUSH2 0x80D JUMPI POP PUSH1 0x0 SLOAD PUSH1 0x1 PUSH1 0xA0 PUSH1 0x2 EXP SUB AND CALLER EQ JUMPDEST ISZERO ISZERO PUSH2 0x889 JUMPI PUSH1 0x40 DUP1 MLOAD PUSH1 0xE5 PUSH1 0x2 EXP PUSH3 0x461BCD MUL DUP2 MSTORE PUSH1 0x20 PUSH1 0x4 DUP3 ADD MSTORE PUSH1 0x2A PUSH1 0x24 DUP3 ADD MSTORE PUSH32 0x4E6F7420616E20617574686F72697A6564206E6F646520746F2066756C66696C PUSH1 0x44 DUP3 ADD MSTORE PUSH32 0x6C20726571756573747300000000000000000000000000000000000000000000 PUSH1 0x64 DUP3 ADD MSTORE SWAP1 MLOAD SWAP1 DUP2 SWAP1 SUB PUSH1 0x84 ADD SWAP1 REVERT JUMPDEST PUSH1 0x0 DUP9 DUP2 MSTORE PUSH1 0x5 PUSH1 0x20 MSTORE PUSH1 0x40 SWAP1 KECCAK256 SLOAD DUP9 SWAP1 ISZERO ISZERO PUSH2 0x8F0 JUMPI PUSH1 0x40 DUP1 MLOAD PUSH1 0xE5 PUSH1 0x2 EXP PUSH3 0x461BCD MUL DUP2 MSTORE PUSH1 0x20 PUSH1 0x4 DUP3 ADD MSTORE PUSH1 0x1B PUSH1 0x24 DUP3 ADD MSTORE PUSH32 0x4D757374206861766520612076616C6964207265717565737449640000000000 PUSH1 0x44 DUP3 ADD MSTORE SWAP1 MLOAD SWAP1 DUP2 SWAP1 SUB PUSH1 0x64 ADD SWAP1 REVERT JUMPDEST PUSH1 0x40 DUP1 MLOAD PUSH1 0x20 DUP1 DUP3 ADD DUP12 SWAP1 MSTORE PUSH13 0x1000000000000000000000000 PUSH1 0x1 PUSH1 0xA0 PUSH1 0x2 EXP SUB DUP12 AND MUL DUP3 DUP5 ADD MSTORE PUSH1 0x1 PUSH1 0xE0 PUSH1 0x2 EXP SUB NOT DUP10 AND PUSH1 0x54 DUP4 ADD MSTORE PUSH1 0x58 DUP1 DUP4 ADD DUP10 SWAP1 MSTORE DUP4 MLOAD DUP1 DUP5 SUB SWAP1 SWAP2 ADD DUP2 MSTORE PUSH1 0x78 SWAP1 SWAP3 ADD SWAP3 DUP4 SWAP1 MSTORE DUP2 MLOAD SWAP2 SWAP3 SWAP2 DUP3 SWAP2 DUP5 ADD SWAP1 DUP1 DUP4 DUP4 JUMPDEST PUSH1 0x20 DUP4 LT PUSH2 0x971 JUMPI DUP1 MLOAD DUP3 MSTORE PUSH1 0x1F NOT SWAP1 SWAP3 ADD SWAP2 PUSH1 0x20 SWAP2 DUP3 ADD SWAP2 ADD PUSH2 0x952 JUMP JUMPDEST MLOAD DUP2 MLOAD PUSH1 0x20 SWAP4 DUP5 SUB PUSH2 0x100 EXP PUSH1 0x0 NOT ADD DUP1 NOT SWAP1 SWAP3 AND SWAP2 AND OR SWAP1 MSTORE PUSH1 0x40 DUP1 MLOAD SWAP3 SWAP1 SWAP5 ADD DUP3 SWAP1 SUB SWAP1 SWAP2 KECCAK256 PUSH1 0x0 DUP16 DUP2 MSTORE PUSH1 0x5 SWAP1 SWAP3 MSTORE SWAP3 SWAP1 KECCAK256 SLOAD SWAP2 SWAP6 POP POP DUP5 EQ SWAP2 POP PUSH2 0xA05 SWAP1 POP JUMPI PUSH1 0x40 DUP1 MLOAD PUSH1 0xE5 PUSH1 0x2 EXP PUSH3 0x461BCD MUL DUP2 MSTORE PUSH1 0x20 PUSH1 0x4 DUP3 ADD MSTORE PUSH1 0x1E PUSH1 0x24 DUP3 ADD MSTORE PUSH32 0x506172616D7320646F206E6F74206D6174636820726571756573742049440000 PUSH1 0x44 DUP3 ADD MSTORE SWAP1 MLOAD SWAP1 DUP2 SWAP1 SUB PUSH1 0x64 ADD SWAP1 REVERT JUMPDEST PUSH1 0x7 SLOAD PUSH2 0xA18 SWAP1 DUP10 PUSH4 0xFFFFFFFF PUSH2 0x121E AND JUMP JUMPDEST PUSH1 0x7 SSTORE PUSH1 0x0 DUP10 DUP2 MSTORE PUSH1 0x5 PUSH1 0x20 MSTORE PUSH1 0x40 DUP2 KECCAK256 SSTORE PUSH3 0x61A80 GAS LT ISZERO PUSH2 0xA85 JUMPI PUSH1 0x40 DUP1 MLOAD PUSH1 0xE5 PUSH1 0x2 EXP PUSH3 0x461BCD MUL DUP2 MSTORE PUSH1 0x20 PUSH1 0x4 DUP3 ADD DUP2 SWAP1 MSTORE PUSH1 0x24 DUP3 ADD MSTORE PUSH32 0x4D7573742070726F7669646520636F6E73756D657220656E6F75676820676173 PUSH1 0x44 DUP3 ADD MSTORE SWAP1 MLOAD SWAP1 DUP2 SWAP1 SUB PUSH1 0x64 ADD SWAP1 REVERT JUMPDEST PUSH1 0x40 DUP1 MLOAD PUSH4 0xFFFFFFFF PUSH1 0xE0 PUSH1 0x2 EXP DUP1 DUP11 DIV SWAP2 DUP3 AND MUL DUP3 MSTORE PUSH1 0x4 DUP3 ADD DUP13 SWAP1 MSTORE PUSH1 0x24 DUP3 ADD DUP8 SWAP1 MSTORE SWAP2 MLOAD PUSH1 0x1 PUSH1 0xA0 PUSH1 0x2 EXP SUB DUP11 AND SWAP3 SWAP2 PUSH1 0x44 DUP1 DUP3 ADD SWAP3 PUSH1 0x0 SWAP3 SWAP1 SWAP2 SWAP1 DUP3 SWAP1 SUB ADD DUP2 DUP4 DUP8 GAS CALL SWAP13 SWAP12 POP POP POP POP POP POP POP POP POP POP POP POP JUMP JUMPDEST PUSH2 0x12C DUP2 JUMP JUMPDEST PUSH1 0x0 DUP1 SLOAD PUSH1 0x1 PUSH1 0xA0 PUSH1 0x2 EXP SUB AND CALLER EQ PUSH2 0xAFB JUMPI PUSH1 0x0 DUP1 REVERT JUMPDEST PUSH1 0x7 SLOAD PUSH2 0xB0F SWAP1 PUSH1 0x1 PUSH4 0xFFFFFFFF PUSH2 0x1231 AND JUMP JUMPDEST SWAP1 POP SWAP1 JUMP JUMPDEST PUSH1 0x40 DUP1 MLOAD PUSH1 0x20 DUP1 DUP3 ADD DUP7 SWAP1 MSTORE PUSH13 0x1000000000000000000000000 CALLER MUL DUP3 DUP5 ADD MSTORE PUSH1 0x1 PUSH1 0xE0 PUSH1 0x2 EXP SUB NOT DUP6 AND PUSH1 0x54 DUP4 ADD MSTORE PUSH1 0x58 DUP1 DUP4 ADD DUP6 SWAP1 MSTORE DUP4 MLOAD DUP1 DUP5 SUB SWAP1 SWAP2 ADD DUP2 MSTORE PUSH1 0x78 SWAP1 SWAP3 ADD SWAP3 DUP4 SWAP1 MSTORE DUP2 MLOAD PUSH1 0x0 SWAP4 SWAP2 DUP3 SWAP2 SWAP1 DUP5 ADD SWAP1 DUP1 DUP4 DUP4 JUMPDEST PUSH1 0x20 DUP4 LT PUSH2 0xB8E JUMPI DUP1 MLOAD DUP3 MSTORE PUSH1 0x1F NOT SWAP1 SWAP3 ADD SWAP2 PUSH1 0x20 SWAP2 DUP3 ADD SWAP2 ADD PUSH2 0xB6F JUMP JUMPDEST MLOAD DUP2 MLOAD PUSH1 0x20 SWAP4 DUP5 SUB PUSH2 0x100 EXP PUSH1 0x0 NOT ADD DUP1 NOT SWAP1 SWAP3 AND SWAP2 AND OR SWAP1 MSTORE PUSH1 0x40 DUP1 MLOAD SWAP3 SWAP1 SWAP5 ADD DUP3 SWAP1 SUB SWAP1 SWAP2 KECCAK256 PUSH1 0x0 DUP12 DUP2 MSTORE PUSH1 0x5 SWAP1 SWAP3 MSTORE SWAP3 SWAP1 KECCAK256 SLOAD SWAP2 SWAP5 POP POP DUP4 EQ SWAP2 POP PUSH2 0xC22 SWAP1 POP JUMPI PUSH1 0x40 DUP1 MLOAD PUSH1 0xE5 PUSH1 0x2 EXP PUSH3 0x461BCD MUL DUP2 MSTORE PUSH1 0x20 PUSH1 0x4 DUP3 ADD MSTORE PUSH1 0x1E PUSH1 0x24 DUP3 ADD MSTORE PUSH32 0x506172616D7320646F206E6F74206D6174636820726571756573742049440000 PUSH1 0x44 DUP3 ADD MSTORE SWAP1 MLOAD SWAP1 DUP2 SWAP1 SUB PUSH1 0x64 ADD SWAP1 REVERT JUMPDEST TIMESTAMP DUP3 GT ISZERO PUSH2 0xC7A JUMPI PUSH1 0x40 DUP1 MLOAD PUSH1 0xE5 PUSH1 0x2 EXP PUSH3 0x461BCD MUL DUP2 MSTORE PUSH1 0x20 PUSH1 0x4 DUP3 ADD MSTORE PUSH1 0x16 PUSH1 0x24 DUP3 ADD MSTORE PUSH32 0x52657175657374206973206E6F74206578706972656400000000000000000000 PUSH1 0x44 DUP3 ADD MSTORE SWAP1 MLOAD SWAP1 DUP2 SWAP1 SUB PUSH1 0x64 ADD SWAP1 REVERT JUMPDEST PUSH1 0x0 DUP6 DUP2 MSTORE PUSH1 0x5 PUSH1 0x20 MSTORE PUSH1 0x40 DUP1 DUP3 KECCAK256 DUP3 SWAP1 SSTORE MLOAD DUP7 SWAP2 PUSH32 0xA7842B9EC549398102C0D91B1B9919B2F20558AEFDADF57528A95C6CD3292E93 SWAP2 LOG2 PUSH1 0x4 DUP1 SLOAD PUSH1 0x40 DUP1 MLOAD PUSH32 0xA9059CBB00000000000000000000000000000000000000000000000000000000 DUP2 MSTORE CALLER SWAP4 DUP2 ADD SWAP4 SWAP1 SWAP4 MSTORE PUSH1 0x24 DUP4 ADD DUP8 SWAP1 MSTORE MLOAD PUSH1 0x1 PUSH1 0xA0 PUSH1 0x2 EXP SUB SWAP1 SWAP2 AND SWAP2 PUSH4 0xA9059CBB SWAP2 PUSH1 0x44 DUP1 DUP4 ADD SWAP3 PUSH1 0x20 SWAP3 SWAP2 SWAP1 DUP3 SWAP1 SUB ADD DUP2 PUSH1 0x0 DUP8 DUP1 EXTCODESIZE ISZERO DUP1 ISZERO PUSH2 0xD20 JUMPI PUSH1 0x0 DUP1 REVERT JUMPDEST POP GAS CALL ISZERO DUP1 ISZERO PUSH2 0xD34 JUMPI RETURNDATASIZE PUSH1 0x0 DUP1 RETURNDATACOPY RETURNDATASIZE PUSH1 0x0 REVERT JUMPDEST POP POP POP POP PUSH1 0x40 MLOAD RETURNDATASIZE PUSH1 0x20 DUP2 LT ISZERO PUSH2 0xD4A JUMPI PUSH1 0x0 DUP1 REVERT JUMPDEST POP MLOAD ISZERO ISZERO PUSH2 0xD54 JUMPI INVALID JUMPDEST POP POP POP POP POP JUMP JUMPDEST PUSH1 0x0 SLOAD PUSH1 0x1 PUSH1 0xA0 PUSH1 0x2 EXP SUB AND CALLER EQ PUSH2 0xD72 JUMPI PUSH1 0x0 DUP1 REVERT JUMPDEST PUSH1 0x0 DUP1 SLOAD PUSH1 0x40 MLOAD PUSH1 0x1 PUSH1 0xA0 PUSH1 0x2 EXP SUB SWAP1 SWAP2 AND SWAP2 PUSH32 0xF8DF31144D9C2F0F6B59D69B8B98ABD5459D07F2742C4DF920B25AAE33C64820 SWAP2 LOG2 PUSH1 0x0 DUP1 SLOAD PUSH20 0xFFFFFFFFFFFFFFFFFFFFFFFFFFFFFFFFFFFFFFFF NOT AND SWAP1 SSTORE JUMP JUMPDEST PUSH1 0x0 SLOAD PUSH1 0x1 PUSH1 0xA0 PUSH1 0x2 EXP SUB AND CALLER EQ PUSH2 0xDDE JUMPI PUSH1 0x0 DUP1 REVERT JUMPDEST PUSH1 0x1 PUSH1 0xA0 PUSH1 0x2 EXP SUB SWAP2 SWAP1 SWAP2 AND PUSH1 0x0 SWAP1 DUP2 MSTORE PUSH1 0x6 PUSH1 0x20 MSTORE PUSH1 0x40 SWAP1 KECCAK256 DUP1 SLOAD PUSH1 0xFF NOT AND SWAP2 ISZERO ISZERO SWAP2 SWAP1 SWAP2 OR SWAP1 SSTORE JUMP JUMPDEST PUSH1 0x5 PUSH1 0x20 MSTORE PUSH1 0x0 SWAP1 DUP2 MSTORE PUSH1 0x40 SWAP1 KECCAK256 SLOAD DUP2 JUMP JUMPDEST PUSH1 0x0 SLOAD PUSH1 0x1 PUSH1 0xA0 PUSH1 0x2 EXP SUB AND DUP2 JUMP JUMPDEST PUSH1 0x2 SLOAD PUSH21 0x10000000000000000000000000000000000000000 SWAP1 DIV PUSH1 0xE0 PUSH1 0x2 EXP MUL DUP2 JUMP JUMPDEST PUSH1 0x4 SLOAD PUSH1 0x1 PUSH1 0xA0 PUSH1 0x2 EXP SUB AND CALLER EQ PUSH2 0xEB0 JUMPI PUSH1 0x40 DUP1 MLOAD PUSH1 0xE5 PUSH1 0x2 EXP PUSH3 0x461BCD MUL DUP2 MSTORE PUSH1 0x20 PUSH1 0x4 DUP3 ADD MSTORE PUSH1 0x13 PUSH1 0x24 DUP3 ADD MSTORE PUSH32 0x4D75737420757365204C494E4B20746F6B656E00000000000000000000000000 PUSH1 0x44 DUP3 ADD MSTORE SWAP1 MLOAD SWAP1 DUP2 SWAP1 SUB PUSH1 0x64 ADD SWAP1 REVERT JUMPDEST DUP1 MLOAD DUP2 SWAP1 PUSH1 0x44 GT ISZERO PUSH2 0xF0C JUMPI PUSH1 0x40 DUP1 MLOAD PUSH1 0xE5 PUSH1 0x2 EXP PUSH3 0x461BCD MUL DUP2 MSTORE PUSH1 0x20 PUSH1 0x4 DUP3 ADD MSTORE PUSH1 0x16 PUSH1 0x24 DUP3 ADD MSTORE PUSH32 0x496E76616C69642072657175657374206C656E67746800000000000000000000 PUSH1 0x44 DUP3 ADD MSTORE SWAP1 MLOAD SWAP1 DUP2 SWAP1 SUB PUSH1 0x64 ADD SWAP1 REVERT JUMPDEST PUSH1 0x20 DUP3 ADD MLOAD DUP3 SWAP1 PUSH1 0x1 PUSH1 0xE0 PUSH1 0x2 EXP SUB NOT DUP2 AND PUSH32 0x4042994600000000000000000000000000000000000000000000000000000000 EQ PUSH2 0xF94 JUMPI PUSH1 0x40 DUP1 MLOAD PUSH1 0xE5 PUSH1 0x2 EXP PUSH3 0x461BCD MUL DUP2 MSTORE PUSH1 0x20 PUSH1 0x4 DUP3 ADD MSTORE PUSH1 0x1E PUSH1 0x24 DUP3 ADD MSTORE PUSH32 0x4D757374207573652077686974656C69737465642066756E6374696F6E730000 PUSH1 0x44 DUP3 ADD MSTORE SWAP1 MLOAD SWAP1 DUP2 SWAP1 SUB PUSH1 0x64 ADD SWAP1 REVERT JUMPDEST DUP6 PUSH1 0x24 DUP6 ADD MSTORE DUP5 PUSH1 0x44 DUP6 ADD MSTORE ADDRESS PUSH1 0x1 PUSH1 0xA0 PUSH1 0x2 EXP SUB AND DUP5 PUSH1 0x40 MLOAD DUP1 DUP3 DUP1 MLOAD SWAP1 PUSH1 0x20 ADD SWAP1 DUP1 DUP4 DUP4 PUSH1 0x0 JUMPDEST DUP4 DUP2 LT ISZERO PUSH2 0xFD5 JUMPI DUP2 DUP2 ADD MLOAD DUP4 DUP3 ADD MSTORE PUSH1 0x20 ADD PUSH2 0xFBD JUMP JUMPDEST POP POP POP POP SWAP1 POP SWAP1 DUP2 ADD SWAP1 PUSH1 0x1F AND DUP1 ISZERO PUSH2 0x1002 JUMPI DUP1 DUP3 SUB DUP1 MLOAD PUSH1 0x1 DUP4 PUSH1 0x20 SUB PUSH2 0x100 EXP SUB NOT AND DUP2 MSTORE PUSH1 0x20 ADD SWAP2 POP JUMPDEST POP SWAP2 POP POP PUSH1 0x0 PUSH1 0x40 MLOAD DUP1 DUP4 SUB DUP2 DUP6 GAS DELEGATECALL SWAP2 POP POP ISZERO ISZERO PUSH2 0x106B JUMPI PUSH1 0x40 DUP1 MLOAD PUSH1 0xE5 PUSH1 0x2 EXP PUSH3 0x461BCD MUL DUP2 MSTORE PUSH1 0x20 PUSH1 0x4 DUP3 ADD MSTORE PUSH1 0x18 PUSH1 0x24 DUP3 ADD MSTORE PUSH32 0x556E61626C6520746F2063726561746520726571756573740000000000000000 PUSH1 0x44 DUP3 ADD MSTORE SWAP1 MLOAD SWAP1 DUP2 SWAP1 SUB PUSH1 0x64 ADD SWAP1 REVERT JUMPDEST POP POP POP POP POP POP JUMP JUMPDEST PUSH1 0x1 PUSH1 0xA0 PUSH1 0x2 EXP SUB AND PUSH1 0x0 SWAP1 DUP2 MSTORE PUSH1 0x6 PUSH1 0x20 MSTORE PUSH1 0x40 SWAP1 KECCAK256 SLOAD PUSH1 0xFF AND SWAP1 JUMP JUMPDEST PUSH1 0x0 SLOAD PUSH1 0x1 PUSH1 0xA0 PUSH1 0x2 EXP SUB AND CALLER EQ PUSH2 0x10A8 JUMPI PUSH1 0x0 DUP1 REVERT JUMPDEST PUSH2 0x10B1 DUP2 PUSH2 0x1243 JUMP JUMPDEST POP JUMP JUMPDEST PUSH1 0x0 SLOAD PUSH1 0x1 PUSH1 0xA0 PUSH1 0x2 EXP SUB AND CALLER EQ PUSH2 0x10CB JUMPI PUSH1 0x0 DUP1 REVERT JUMPDEST DUP1 PUSH2 0x10DD DUP2 PUSH1 0x1 PUSH4 0xFFFFFFFF PUSH2 0x121E AND JUMP JUMPDEST PUSH1 0x7 SLOAD LT ISZERO PUSH2 0x115C JUMPI PUSH1 0x40 DUP1 MLOAD PUSH1 0xE5 PUSH1 0x2 EXP PUSH3 0x461BCD MUL DUP2 MSTORE PUSH1 0x20 PUSH1 0x4 DUP3 ADD MSTORE PUSH1 0x35 PUSH1 0x24 DUP3 ADD MSTORE PUSH32 0x416D6F756E74207265717565737465642069732067726561746572207468616E PUSH1 0x44 DUP3 ADD MSTORE PUSH32 0x20776974686472617761626C652062616C616E63650000000000000000000000 PUSH1 0x64 DUP3 ADD MSTORE SWAP1 MLOAD SWAP1 DUP2 SWAP1 SUB PUSH1 0x84 ADD SWAP1 REVERT JUMPDEST PUSH1 0x7 SLOAD PUSH2 0x116F SWAP1 DUP4 PUSH4 0xFFFFFFFF PUSH2 0x1231 AND JUMP JUMPDEST PUSH1 0x7 SSTORE PUSH1 0x4 DUP1 SLOAD PUSH1 0x40 DUP1 MLOAD PUSH32 0xA9059CBB00000000000000000000000000000000000000000000000000000000 DUP2 MSTORE PUSH1 0x1 PUSH1 0xA0 PUSH1 0x2 EXP SUB DUP8 DUP2 AND SWAP5 DUP3 ADD SWAP5 SWAP1 SWAP5 MSTORE PUSH1 0x24 DUP2 ADD DUP7 SWAP1 MSTORE SWAP1 MLOAD SWAP3 SWAP1 SWAP2 AND SWAP2 PUSH4 0xA9059CBB SWAP2 PUSH1 0x44 DUP1 DUP3 ADD SWAP3 PUSH1 0x20 SWAP3 SWAP1 SWAP2 SWAP1 DUP3 SWAP1 SUB ADD DUP2 PUSH1 0x0 DUP8 DUP1 EXTCODESIZE ISZERO DUP1 ISZERO PUSH2 0x11E5 JUMPI PUSH1 0x0 DUP1 REVERT JUMPDEST POP GAS CALL ISZERO DUP1 ISZERO PUSH2 0x11F9 JUMPI RETURNDATASIZE PUSH1 0x0 DUP1 RETURNDATACOPY RETURNDATASIZE PUSH1 0x0 REVERT JUMPDEST POP POP POP POP PUSH1 0x40 MLOAD RETURNDATASIZE PUSH1 0x20 DUP2 LT ISZERO PUSH2 0x120F JUMPI PUSH1 0x0 DUP1 REVERT JUMPDEST POP MLOAD ISZERO ISZERO PUSH2 0x1219 JUMPI INVALID JUMPDEST POP POP POP JUMP JUMPDEST DUP2 DUP2 ADD DUP3 DUP2 LT ISZERO PUSH2 0x122B JUMPI INVALID JUMPDEST SWAP3 SWAP2 POP POP JUMP JUMPDEST PUSH1 0x0 DUP3 DUP3 GT ISZERO PUSH2 0x123D JUMPI INVALID JUMPDEST POP SWAP1 SUB SWAP1 JUMP JUMPDEST PUSH1 0x1 PUSH1 0xA0 PUSH1 0x2 EXP SUB DUP2 AND ISZERO ISZERO PUSH2 0x1258 JUMPI PUSH1 0x0 DUP1 REVERT JUMPDEST PUSH1 0x0 DUP1 SLOAD PUSH1 0x40 MLOAD PUSH1 0x1 PUSH1 0xA0 PUSH1 0x2 EXP SUB DUP1 DUP6 AND SWAP4 SWAP3 AND SWAP2 PUSH32 0x8BE0079C531659141344CD1FD0A4F28419497F9722A3DAAFE3B4186F6B6457E0 SWAP2 LOG3 PUSH1 0x0 DUP1 SLOAD PUSH20 0xFFFFFFFFFFFFFFFFFFFFFFFFFFFFFFFFFFFFFFFF NOT AND PUSH1 0x1 PUSH1 0xA0 PUSH1 0x2 EXP SUB SWAP3 SWAP1 SWAP3 AND SWAP2 SWAP1 SWAP2 OR SWAP1 SSTORE JUMP STOP LOG1 PUSH6 0x627A7A723058 KECCAK256 0xc5 ADD 0xd0 PUSH14 0x3A4F9F0225EE0A6C256588B7B141 0xbf JUMP DUP1 MLOAD 0x29 ADDMOD SWAP13 PUSH25 0x43F9E672F47A00290000000000000000000000000000000000 ",
  "sha1": "55ece7b85f437c738351e2661414eaafa4060d76",
  "source": "pragma solidity 0.4.24;\n\nimport \"@chainlink/contracts/src/v0.4/vendor/Ownable.sol\";\nimport \"@chainlink/contracts/src/v0.4/vendor/SafeMath.sol\";\nimport \"@chainlink/contracts/src/v0.4/interfaces/ChainlinkRequestInterface.sol\";\nimport \"@chainlink/contracts/src/v0.4/interfaces/OracleInterface.sol\";\nimport \"@chainlink/contracts/src/v0.4/interfaces/LinkTokenInterface.sol\";\n\n/**\n * @title The Chainlink Oracle contract\n * @notice Node operators can deploy this contract to fulfill requests sent to them\n * @notice This is a modified Oracle.sol for easier testing\n */\ncontract Oracle is ChainlinkRequestInterface, OracleInterface, Ownable {\n  using SafeMath for uint256;\n\n  uint256 public payment = 0;\n  address public callbackAddress;\n  bytes4 public callbackFunctionId;\n  uint256 public exp_time;\n\n  uint256 constant public EXPIRY_TIME = 5 minutes;\n  uint256 constant private MINIMUM_CONSUMER_GAS_LIMIT = 400000;\n  // We initialize fields to 1 instead of 0 so that the first invocation\n  // does not cost more gas.\n  uint256 constant private ONE_FOR_CONSISTENT_GAS_COST = 1;\n  uint256 constant private SELECTOR_LENGTH = 4;\n  uint256 constant private EXPECTED_REQUEST_WORDS = 2;\n  uint256 constant private MINIMUM_REQUEST_LENGTH = SELECTOR_LENGTH + (32 * EXPECTED_REQUEST_WORDS);\n\n  LinkTokenInterface internal LinkToken;\n  mapping(bytes32 => bytes32) public commitments;\n  mapping(address => bool) private authorizedNodes;\n  uint256 private withdrawableTokens = ONE_FOR_CONSISTENT_GAS_COST;\n\n  event OracleRequest(\n    bytes32 indexed specId,\n    address requester,\n    bytes32 requestId,\n    uint256 payment,\n    address callbackAddr,\n    bytes4 callbackFunctionId,\n    uint256 cancelExpiration,\n    uint256 dataVersion,\n    bytes data\n  );\n\n  event CancelOracleRequest(\n    bytes32 indexed requestId\n  );\n\n  /**\n   * @notice Deploy with the address of the LINK token\n   * @dev Sets the LinkToken address for the imported LinkTokenInterface\n   * @param _link The address of the LINK token\n   */\n  constructor(address _link) public Ownable() {\n    LinkToken = LinkTokenInterface(_link); // external but already deployed and unalterable\n  }\n\n  /**\n   * @notice Called when LINK is sent to the contract via `transferAndCall`\n   * @dev The data payload's first 2 words will be overwritten by the `_sender` and `_amount`\n   * values to ensure correctness. Calls oracleRequest.\n   * @param _sender Address of the sender\n   * @param _amount Amount of LINK sent (specified in wei)\n   * @param _data Payload of the transaction\n   */\n  function onTokenTransfer(\n    address _sender,\n    uint256 _amount,\n    bytes _data\n  )\n    public\n    onlyLINK\n    validRequestLength(_data)\n    permittedFunctionsForLINK(_data)\n  {\n    assembly { // solhint-disable-line no-inline-assembly\n      mstore(add(_data, 36), _sender) // ensure correct sender is passed\n      mstore(add(_data, 68), _amount) // ensure correct amount is passed\n    }\n    // solhint-disable-next-line avoid-low-level-calls\n    require(address(this).delegatecall(_data), \"Unable to create request\"); // calls oracleRequest\n  }\n\n  /**\n   * @notice Creates the Chainlink request\n   * @dev Stores the hash of the params as the on-chain commitment for the request.\n   * Emits OracleRequest event for the Chainlink node to detect.\n   * @param _sender The sender of the request\n   * @param _payment The amount of payment given (specified in wei)\n   * @param _specId The Job Specification ID\n   * @param _callbackAddress The callback address for the response\n   * @param _callbackFunctionId The callback function ID for the response\n   * @param _nonce The nonce sent by the requester\n   * @param _dataVersion The specified data version\n   * @param _data The CBOR payload of the request\n   */\n  function oracleRequest(\n    address _sender,\n    uint256 _payment,\n    bytes32 _specId,\n    address _callbackAddress,\n    bytes4 _callbackFunctionId,\n    uint256 _nonce,\n    uint256 _dataVersion,\n    bytes _data\n  )\n    external\n    onlyLINK\n    checkCallbackAddress(_callbackAddress)\n  {\n    payment = _payment;\n    callbackAddress = _callbackAddress;\n    callbackFunctionId = _callbackFunctionId;\n\n\n    bytes32 requestId = keccak256(abi.encodePacked(_sender, _nonce));\n    require(commitments[requestId] == 0, \"Must use a unique ID\");\n    // solhint-disable-next-line not-rely-on-time\n    uint256 expiration = now.add(EXPIRY_TIME);\n    exp_time = expiration;\n\n    commitments[requestId] = keccak256(\n      abi.encodePacked(\n        _payment,\n        _callbackAddress,\n        _callbackFunctionId,\n        expiration\n      )\n    );\n\n    emit OracleRequest(\n      _specId,\n      _sender,\n      requestId,\n      _payment,\n      _callbackAddress,\n      _callbackFunctionId,\n      expiration,\n      _dataVersion,\n      _data);\n  }\n\n  /**\n   * @notice Called by the Chainlink node to fulfill requests\n   * @dev Given params must hash back to the commitment stored from `oracleRequest`.\n   * Will call the callback address' callback function without bubbling up error\n   * checking in a `require` so that the node can get paid.\n   * @param _requestId The fulfillment request ID that must match the requester's\n   * @param _payment The payment amount that will be released for the oracle (specified in wei)\n   * @param _callbackAddress The callback address to call for fulfillment\n   * @param _callbackFunctionId The callback function ID to use for fulfillment\n   * @param _expiration The expiration that the node should respond by before the requester can cancel\n   * @param _data The data to return to the consuming contract\n   * @return Status if the external call was successful\n   */\n  function fulfillOracleRequest(\n    bytes32 _requestId,\n    uint256 _payment,\n    address _callbackAddress,\n    bytes4 _callbackFunctionId,\n    uint256 _expiration,\n    bytes32 _data\n  )\n    external\n    onlyAuthorizedNode\n    isValidRequest(_requestId)\n    returns (bool)\n  {\n    bytes32 paramsHash = keccak256(\n      abi.encodePacked(\n        _payment,\n        _callbackAddress,\n        _callbackFunctionId,\n        _expiration\n      )\n    );\n    \n    require(commitments[_requestId] == paramsHash, \"Params do not match request ID\");\n    withdrawableTokens = withdrawableTokens.add(_payment);\n    delete commitments[_requestId];\n    require(gasleft() >= MINIMUM_CONSUMER_GAS_LIMIT, \"Must provide consumer enough gas\");\n    // All updates to the oracle's fulfillment should come before calling the\n    // callback(addr+functionId) as it is untrusted.\n    // See: https://solidity.readthedocs.io/en/develop/security-considerations.html#use-the-checks-effects-interactions-pattern\n    return _callbackAddress.call(_callbackFunctionId, _requestId, _data); // solhint-disable-line avoid-low-level-calls\n  }\n\n  /**\n   * @notice Use this to check if a node is authorized for fulfilling requests\n   * @param _node The address of the Chainlink node\n   * @return The authorization status of the node\n   */\n  function getAuthorizationStatus(address _node) external view returns (bool) {\n    return authorizedNodes[_node];\n  }\n\n  /**\n   * @notice Sets the fulfillment permission for a given node. Use `true` to allow, `false` to disallow.\n   * @param _node The address of the Chainlink node\n   * @param _allowed Bool value to determine if the node can fulfill requests\n   */\n  function setFulfillmentPermission(address _node, bool _allowed) external onlyOwner {\n    authorizedNodes[_node] = _allowed;\n  }\n\n  /**\n   * @notice Allows the node operator to withdraw earned LINK to a given address\n   * @dev The owner of the contract can be another wallet and does not have to be a Chainlink node\n   * @param _recipient The address to send the LINK token to\n   * @param _amount The amount to send (specified in wei)\n   */\n  function withdraw(address _recipient, uint256 _amount)\n    external\n    onlyOwner\n    hasAvailableFunds(_amount)\n  {\n    withdrawableTokens = withdrawableTokens.sub(_amount);\n    assert(LinkToken.transfer(_recipient, _amount));\n  }\n\n  /**\n   * @notice Displays the amount of LINK that is available for the node operator to withdraw\n   * @dev We use `ONE_FOR_CONSISTENT_GAS_COST` in place of 0 in storage\n   * @return The amount of withdrawable LINK on the contract\n   */\n  function withdrawable() external view onlyOwner returns (uint256) {\n    return withdrawableTokens.sub(ONE_FOR_CONSISTENT_GAS_COST);\n  }\n\n  /**\n   * @notice Allows requesters to cancel requests sent to this oracle contract. Will transfer the LINK\n   * sent for the request back to the requester's address.\n   * @dev Given params must hash to a commitment stored on the contract in order for the request to be valid\n   * Emits CancelOracleRequest event.\n   * @param _requestId The request ID\n   * @param _payment The amount of payment given (specified in wei)\n   * @param _callbackFunc The requester's specified callback address\n   * @param _expiration The time of the expiration for the request\n   */\n  function cancelOracleRequest(\n    bytes32 _requestId,\n    uint256 _payment,\n    bytes4 _callbackFunc,\n    uint256 _expiration\n  ) external {\n    bytes32 paramsHash = keccak256(\n      abi.encodePacked(\n        _payment,\n        msg.sender,\n        _callbackFunc,\n        _expiration)\n    );\n    require(paramsHash == commitments[_requestId], \"Params do not match request ID\");\n    // solhint-disable-next-line not-rely-on-time\n    require(_expiration <= now, \"Request is not expired\");\n\n    delete commitments[_requestId];\n    emit CancelOracleRequest(_requestId);\n\n    assert(LinkToken.transfer(msg.sender, _payment));\n  }\n\n  // MODIFIERS\n\n  /**\n   * @dev Reverts if amount requested is greater than withdrawable balance\n   * @param _amount The given amount to compare to `withdrawableTokens`\n   */\n  modifier hasAvailableFunds(uint256 _amount) {\n    require(withdrawableTokens >= _amount.add(ONE_FOR_CONSISTENT_GAS_COST), \"Amount requested is greater than withdrawable balance\");\n    _;\n  }\n\n  /**\n   * @dev Reverts if request ID does not exist\n   * @param _requestId The given request ID to check in stored `commitments`\n   */\n  modifier isValidRequest(bytes32 _requestId) {\n    require(commitments[_requestId] != 0, \"Must have a valid requestId\");\n    _;\n  }\n\n  /**\n   * @dev Reverts if `msg.sender` is not authorized to fulfill requests\n   */\n  modifier onlyAuthorizedNode() {\n    require(authorizedNodes[msg.sender] || msg.sender == owner, \"Not an authorized node to fulfill requests\");\n    _;\n  }\n\n  /**\n   * @dev Reverts if not sent from the LINK token\n   */\n  modifier onlyLINK() {\n    require(msg.sender == address(LinkToken), \"Must use LINK token\");\n    _;\n  }\n\n  /**\n   * @dev Reverts if the given data does not begin with the `oracleRequest` function selector\n   * @param _data The data payload of the request\n   */\n  modifier permittedFunctionsForLINK(bytes _data) {\n    bytes4 funcSelector;\n    assembly { // solhint-disable-line no-inline-assembly\n      funcSelector := mload(add(_data, 32))\n    }\n    require(funcSelector == this.oracleRequest.selector, \"Must use whitelisted functions\");\n    _;\n  }\n\n  /**\n   * @dev Reverts if the callback address is the LINK token\n   * @param _to The callback address\n   */\n  modifier checkCallbackAddress(address _to) {\n    require(_to != address(LinkToken), \"Cannot callback to LINK\");\n    _;\n  }\n\n  /**\n   * @dev Reverts if the given payload is less than needed to create a request\n   * @param _data The request payload\n   */\n  modifier validRequestLength(bytes _data) {\n    require(_data.length >= MINIMUM_REQUEST_LENGTH, \"Invalid request length\");\n    _;\n  }\n\n}\n",
  "sourcePath": "contracts/test_contracts/Oracle.sol",
  "type": "contract"
}